{
  "contractName": "Voting",
  "abi": [
    {
      "anonymous": false,
      "inputs": [
        {
          "indexed": true,
          "internalType": "address",
          "name": "previousOwner",
          "type": "address"
        },
        {
          "indexed": true,
          "internalType": "address",
          "name": "newOwner",
          "type": "address"
        }
      ],
      "name": "OwnershipTransferred",
      "type": "event"
    },
    {
      "anonymous": false,
      "inputs": [
        {
          "indexed": false,
          "internalType": "uint256",
          "name": "proposalId",
          "type": "uint256"
        }
      ],
      "name": "ProposalRegistered",
      "type": "event"
    },
    {
      "anonymous": false,
      "inputs": [],
      "name": "ProposalsRegistrationEnded",
      "type": "event"
    },
    {
      "anonymous": false,
      "inputs": [],
      "name": "ProposalsRegistrationStarted",
      "type": "event"
    },
    {
      "anonymous": false,
      "inputs": [
        {
          "indexed": false,
          "internalType": "address",
          "name": "voter",
          "type": "address"
        },
        {
          "indexed": false,
          "internalType": "uint256",
          "name": "proposalId",
          "type": "uint256"
        }
      ],
      "name": "Voted",
      "type": "event"
    },
    {
      "anonymous": false,
      "inputs": [
        {
          "indexed": false,
          "internalType": "address",
          "name": "voterAddress",
          "type": "address"
        }
      ],
      "name": "VoterRegistered",
      "type": "event"
    },
    {
      "anonymous": false,
      "inputs": [],
      "name": "VotesTallied",
      "type": "event"
    },
    {
      "anonymous": false,
      "inputs": [],
      "name": "VotingSessionEnded",
      "type": "event"
    },
    {
      "anonymous": false,
      "inputs": [],
      "name": "VotingSessionStarted",
      "type": "event"
    },
    {
      "anonymous": false,
      "inputs": [
        {
          "indexed": false,
          "internalType": "enum Voting.WorkflowStatus",
          "name": "previousStatus",
          "type": "uint8"
        },
        {
          "indexed": false,
          "internalType": "enum Voting.WorkflowStatus",
          "name": "newStatus",
          "type": "uint8"
        }
      ],
      "name": "WorkflowStatusChange",
      "type": "event"
    },
    {
      "inputs": [],
      "name": "Status",
      "outputs": [
        {
          "internalType": "enum Voting.WorkflowStatus",
          "name": "",
          "type": "uint8"
        }
      ],
      "stateMutability": "view",
      "type": "function",
      "constant": true
    },
    {
      "inputs": [
        {
          "internalType": "uint256",
          "name": "",
          "type": "uint256"
        }
      ],
      "name": "addresses",
      "outputs": [
        {
          "internalType": "address",
          "name": "",
          "type": "address"
        }
      ],
      "stateMutability": "view",
      "type": "function",
      "constant": true
    },
    {
      "inputs": [],
      "name": "owner",
      "outputs": [
        {
          "internalType": "address",
          "name": "",
          "type": "address"
        }
      ],
      "stateMutability": "view",
      "type": "function",
      "constant": true
    },
    {
      "inputs": [
        {
          "internalType": "uint256",
          "name": "",
          "type": "uint256"
        }
      ],
      "name": "proposition",
      "outputs": [
        {
          "internalType": "string",
          "name": "description",
          "type": "string"
        },
        {
          "internalType": "uint256",
          "name": "voteCount",
          "type": "uint256"
        }
      ],
      "stateMutability": "view",
      "type": "function",
      "constant": true
    },
    {
      "inputs": [],
      "name": "renounceOwnership",
      "outputs": [],
      "stateMutability": "nonpayable",
      "type": "function"
    },
    {
      "inputs": [
        {
          "internalType": "address",
          "name": "newOwner",
          "type": "address"
        }
      ],
      "name": "transferOwnership",
      "outputs": [],
      "stateMutability": "nonpayable",
      "type": "function"
    },
    {
      "inputs": [],
      "name": "winningProposalId",
      "outputs": [
        {
          "internalType": "uint256",
          "name": "",
          "type": "uint256"
        }
      ],
      "stateMutability": "view",
      "type": "function",
      "constant": true
    },
    {
      "inputs": [
        {
          "internalType": "address",
          "name": "_address",
          "type": "address"
        }
      ],
      "name": "whitelist",
      "outputs": [],
      "stateMutability": "nonpayable",
      "type": "function"
    },
    {
      "inputs": [],
      "name": "Nb_Electeur",
      "outputs": [
        {
          "internalType": "uint256",
          "name": "",
          "type": "uint256"
        }
      ],
      "stateMutability": "view",
      "type": "function",
      "constant": true
    },
    {
      "inputs": [],
      "name": "getAddresses",
      "outputs": [
        {
          "internalType": "address[]",
          "name": "",
          "type": "address[]"
        }
      ],
      "stateMutability": "view",
      "type": "function",
      "constant": true
    },
    {
      "inputs": [],
      "name": "StartEnregristrement",
      "outputs": [],
      "stateMutability": "nonpayable",
      "type": "function"
    },
    {
      "inputs": [
        {
          "internalType": "string",
          "name": "_information",
          "type": "string"
        }
      ],
      "name": "Addproposal",
      "outputs": [],
      "stateMutability": "nonpayable",
      "type": "function"
    },
    {
      "inputs": [],
      "name": "Nb_Proposition",
      "outputs": [
        {
          "internalType": "uint256",
          "name": "",
          "type": "uint256"
        }
      ],
      "stateMutability": "view",
      "type": "function",
      "constant": true
    },
    {
      "inputs": [],
      "name": "EndEnregristrement",
      "outputs": [],
      "stateMutability": "nonpayable",
      "type": "function"
    },
    {
      "inputs": [],
      "name": "StartVote",
      "outputs": [],
      "stateMutability": "nonpayable",
      "type": "function"
    },
    {
      "inputs": [
        {
          "internalType": "uint256",
          "name": "idPropal",
          "type": "uint256"
        }
      ],
      "name": "Vote",
      "outputs": [],
      "stateMutability": "nonpayable",
      "type": "function"
    },
    {
      "inputs": [],
      "name": "EndVote",
      "outputs": [],
      "stateMutability": "nonpayable",
      "type": "function"
    },
    {
      "inputs": [],
      "name": "CheckWinner",
      "outputs": [
        {
          "components": [
            {
              "internalType": "string",
              "name": "description",
              "type": "string"
            },
            {
              "internalType": "uint256",
              "name": "voteCount",
              "type": "uint256"
            }
          ],
          "internalType": "struct Voting.Proposal",
          "name": "",
          "type": "tuple"
        }
      ],
      "stateMutability": "view",
      "type": "function",
      "constant": true
    },
    {
      "inputs": [
        {
          "internalType": "address",
          "name": "_address",
          "type": "address"
        }
      ],
      "name": "isWhitelisted",
      "outputs": [
        {
          "internalType": "uint256",
          "name": "",
          "type": "uint256"
        }
      ],
      "stateMutability": "view",
      "type": "function",
      "constant": true
    }
  ],
  "bytecode": "0x60806040526000600560006101000a81548160ff021916908360058111156200002d576200002c62000137565b5b021790555060006006553480156200004457600080fd5b5062000065620000596200006b60201b60201c565b6200007360201b60201c565b62000166565b600033905090565b60008060009054906101000a900473ffffffffffffffffffffffffffffffffffffffff169050816000806101000a81548173ffffffffffffffffffffffffffffffffffffffff021916908373ffffffffffffffffffffffffffffffffffffffff1602179055508173ffffffffffffffffffffffffffffffffffffffff168173ffffffffffffffffffffffffffffffffffffffff167f8be0079c531659141344cd1fd0a4f28419497f9722a3daafe3b4186f6b6457e060405160405180910390a35050565b7f4e487b7100000000000000000000000000000000000000000000000000000000600052602160045260246000fd5b61239e80620001766000396000f3fe608060405234801561001057600080fd5b50600436106101215760003560e01c8063a2f3d16e116100ad578063dcd6a5cd11610071578063dcd6a5cd146102af578063edf26d9b146102cb578063f2fde38b146102fb578063f8c37ae814610317578063ff943e3a1461032157610121565b8063a2f3d16e1461021a578063a39fac1214610238578063b4c4197114610256578063c64963c514610287578063c68e2a49146102a557610121565b8063715018a6116100f4578063715018a6146101ae57806372a413a9146101b85780638da5cb5b146101c25780639b19251a146101e05780639d8ebb8b146101fc57610121565b80633af32abf1461012657806345f09ce91461015657806361b3f07a146101745780636547689a14610190575b600080fd5b610140600480360381019061013b9190611792565b61032b565b60405161014d9190611d3f565b60405180910390f35b61015e61039c565b60405161016b9190611b69565b60405180910390f35b61018e600480360381019061018991906117bf565b6103af565b005b61019861056a565b6040516101a59190611d3f565b60405180910390f35b6101b6610577565b005b6101c06105ff565b005b6101ca610785565b6040516101d79190611b03565b60405180910390f35b6101fa60048036038101906101f59190611792565b6107ae565b005b610204610a27565b6040516102119190611d3f565b60405180910390f35b610222610a34565b60405161022f9190611d1d565b60405180910390f35b610240610b0c565b60405161024d9190611b47565b60405180910390f35b610270600480360381019061026b9190611808565b610b9a565b60405161027e929190611bad565b60405180910390f35b61028f610c56565b60405161029c9190611d3f565b60405180910390f35b6102ad610c5c565b005b6102c960048036038101906102c49190611808565b610dac565b005b6102e560048036038101906102e09190611808565b611116565b6040516102f29190611b03565b60405180910390f35b61031560048036038101906103109190611792565b611155565b005b61031f61124d565b005b6103296113d3565b005b600060011515600160008473ffffffffffffffffffffffffffffffffffffffff1673ffffffffffffffffffffffffffffffffffffffff16815260200190815260200160002060010160009054906101000a900460ff16151514156103925760019050610397565b600090505b919050565b600560009054906101000a900460ff1681565b600160058111156103c3576103c2611fa1565b5b600560009054906101000a900460ff1660058111156103e5576103e4611fa1565b5b14610425576040517f08c379a000000000000000000000000000000000000000000000000000000000815260040161041c90611bdd565b60405180910390fd5b60011515600160003373ffffffffffffffffffffffffffffffffffffffff1673ffffffffffffffffffffffffffffffffffffffff16815260200190815260200160002060010160009054906101000a900460ff161515146104bb576040517f08c379a00000000000000000000000000000000000000000000000000000000081526004016104b290611c7d565b60405180910390fd5b60006040518060400160405280838152602001600081525090506003819080600181540180825580915050600190039060005260206000209060020201600090919091909150600082015181600001908051906020019061051d92919061163b565b506020820151816001015550507f92e393e9b54e2f801d3ea4beb0c5e71a21cc34a5d34b77d0fb8a3aa1650dc18f60038054905060405161055e9190611d3f565b60405180910390a15050565b6000600380549050905090565b61057f611559565b73ffffffffffffffffffffffffffffffffffffffff1661059d610785565b73ffffffffffffffffffffffffffffffffffffffff16146105f3576040517f08c379a00000000000000000000000000000000000000000000000000000000081526004016105ea90611cbd565b60405180910390fd5b6105fd6000611561565b565b610607611559565b73ffffffffffffffffffffffffffffffffffffffff16610625610785565b73ffffffffffffffffffffffffffffffffffffffff161461067b576040517f08c379a000000000000000000000000000000000000000000000000000000000815260040161067290611cbd565b60405180910390fd5b6003600581111561068f5761068e611fa1565b5b600560009054906101000a900460ff1660058111156106b1576106b0611fa1565b5b146106f1576040517f08c379a00000000000000000000000000000000000000000000000000000000081526004016106e890611cfd565b60405180910390fd5b7fc379d349a6301baf50fb2f98d829f4ae10b1cdb7c66f4e4d8117302df7b8cd4c60405160405180910390a16004600560006101000a81548160ff0219169083600581111561074357610742611fa1565b5b02179055507f0a97a4ee45751e2abf3e4fc8946939630b11b371ea8ae39ccdc3056e98f5cc3f6003600460405161077b929190611b84565b60405180910390a1565b60008060009054906101000a900473ffffffffffffffffffffffffffffffffffffffff16905090565b6107b6611559565b73ffffffffffffffffffffffffffffffffffffffff166107d4610785565b73ffffffffffffffffffffffffffffffffffffffff161461082a576040517f08c379a000000000000000000000000000000000000000000000000000000000815260040161082190611cbd565b60405180910390fd5b600160008273ffffffffffffffffffffffffffffffffffffffff1673ffffffffffffffffffffffffffffffffffffffff16815260200190815260200160002060010160009054906101000a900460ff16156108ba576040517f08c379a00000000000000000000000000000000000000000000000000000000081526004016108b190611c9d565b60405180910390fd5b600060058111156108ce576108cd611fa1565b5b600560009054906101000a900460ff1660058111156108f0576108ef611fa1565b5b14610930576040517f08c379a000000000000000000000000000000000000000000000000000000000815260040161092790611c5d565b60405180910390fd5b60018060008373ffffffffffffffffffffffffffffffffffffffff1673ffffffffffffffffffffffffffffffffffffffff16815260200190815260200160002060010160006101000a81548160ff0219169083151502179055506002819080600181540180825580915050600190039060005260206000200160009091909190916101000a81548173ffffffffffffffffffffffffffffffffffffffff021916908373ffffffffffffffffffffffffffffffffffffffff1602179055507fb6be2187d059cc2a55fe29e0e503b566e1e0f8c8780096e185429350acffd3dd81604051610a1c9190611b03565b60405180910390a150565b6000600280549050905090565b610a3c6116c1565b600360045481548110610a5257610a51611fff565b5b9060005260206000209060020201604051806040016040529081600082018054610a7b90611f0f565b80601f0160208091040260200160405190810160405280929190818152602001828054610aa790611f0f565b8015610af45780601f10610ac957610100808354040283529160200191610af4565b820191906000526020600020905b815481529060010190602001808311610ad757829003601f168201915b50505050508152602001600182015481525050905090565b60606002805480602002602001604051908101604052809291908181526020018280548015610b9057602002820191906000526020600020905b8160009054906101000a900473ffffffffffffffffffffffffffffffffffffffff1673ffffffffffffffffffffffffffffffffffffffff1681526020019060010190808311610b46575b5050505050905090565b60038181548110610baa57600080fd5b9060005260206000209060020201600091509050806000018054610bcd90611f0f565b80601f0160208091040260200160405190810160405280929190818152602001828054610bf990611f0f565b8015610c465780601f10610c1b57610100808354040283529160200191610c46565b820191906000526020600020905b815481529060010190602001808311610c2957829003601f168201915b5050505050908060010154905082565b60045481565b610c64611559565b73ffffffffffffffffffffffffffffffffffffffff16610c82610785565b73ffffffffffffffffffffffffffffffffffffffff1614610cd8576040517f08c379a0000000000000000000000000000000000000000000000000000000008152600401610ccf90611cbd565b60405180910390fd5b60016005811115610cec57610ceb611fa1565b5b600560009054906101000a900460ff166005811115610d0e57610d0d611fa1565b5b14610d1857600080fd5b7f240cb87b2e4df4c318e72bd714d45a9cad60249e883ff56b1fffd83a4595a8fa60405160405180910390a16002600560006101000a81548160ff02191690836005811115610d6a57610d69611fa1565b5b02179055507f0a97a4ee45751e2abf3e4fc8946939630b11b371ea8ae39ccdc3056e98f5cc3f60016002604051610da2929190611b84565b60405180910390a1565b60036005811115610dc057610dbf611fa1565b5b600560009054906101000a900460ff166005811115610de257610de1611fa1565b5b14610e22576040517f08c379a0000000000000000000000000000000000000000000000000000000008152600401610e1990611cdd565b60405180910390fd5b60011515600160003373ffffffffffffffffffffffffffffffffffffffff1673ffffffffffffffffffffffffffffffffffffffff16815260200190815260200160002060010160009054906101000a900460ff16151514610eb8576040517f08c379a0000000000000000000000000000000000000000000000000000000008152600401610eaf90611c7d565b60405180910390fd5b600160003373ffffffffffffffffffffffffffffffffffffffff1673ffffffffffffffffffffffffffffffffffffffff16815260200190815260200160002060010160019054906101000a900460ff1615610f48576040517f08c379a0000000000000000000000000000000000000000000000000000000008152600401610f3f90611c3d565b60405180910390fd5b610f81600160038381548110610f6157610f60611fff565b5b90600052602060002090600202016001015461162590919063ffffffff16565b60038281548110610f9557610f94611fff565b5b90600052602060002090600202016001018190555060018060003373ffffffffffffffffffffffffffffffffffffffff1673ffffffffffffffffffffffffffffffffffffffff16815260200190815260200160002060010160016101000a81548160ff02191690831515021790555080600160003373ffffffffffffffffffffffffffffffffffffffff1673ffffffffffffffffffffffffffffffffffffffff168152602001908152602001600020600001819055506006546003828154811061106257611061611fff565b5b90600052602060002090600202016001015411156110da576003818154811061108e5761108d611fff565b5b906000526020600020906002020160010154600681905550806004819055507f0e5e95ff8725ab3e7a4b6b59998a4c344c2aa8d1485f5e60cb7f337768e6134760405160405180910390a15b7f4d99b957a2bc29a30ebd96a7be8e68fe50a3c701db28a91436490b7d53870ca4338260405161110b929190611b1e565b60405180910390a150565b6002818154811061112657600080fd5b906000526020600020016000915054906101000a900473ffffffffffffffffffffffffffffffffffffffff1681565b61115d611559565b73ffffffffffffffffffffffffffffffffffffffff1661117b610785565b73ffffffffffffffffffffffffffffffffffffffff16146111d1576040517f08c379a00000000000000000000000000000000000000000000000000000000081526004016111c890611cbd565b60405180910390fd5b600073ffffffffffffffffffffffffffffffffffffffff168173ffffffffffffffffffffffffffffffffffffffff161415611241576040517f08c379a000000000000000000000000000000000000000000000000000000000815260040161123890611bfd565b60405180910390fd5b61124a81611561565b50565b611255611559565b73ffffffffffffffffffffffffffffffffffffffff16611273610785565b73ffffffffffffffffffffffffffffffffffffffff16146112c9576040517f08c379a00000000000000000000000000000000000000000000000000000000081526004016112c090611cbd565b60405180910390fd5b600060058111156112dd576112dc611fa1565b5b600560009054906101000a900460ff1660058111156112ff576112fe611fa1565b5b1461133f576040517f08c379a000000000000000000000000000000000000000000000000000000000815260040161133690611c5d565b60405180910390fd5b7f344c25562921d075a298d34b6dd1fd00d36ff293974539dfd4a8c625d9f0064c60405160405180910390a16001600560006101000a81548160ff0219169083600581111561139157611390611fa1565b5b02179055507f0a97a4ee45751e2abf3e4fc8946939630b11b371ea8ae39ccdc3056e98f5cc3f600460016040516113c9929190611b84565b60405180910390a1565b6113db611559565b73ffffffffffffffffffffffffffffffffffffffff166113f9610785565b73ffffffffffffffffffffffffffffffffffffffff161461144f576040517f08c379a000000000000000000000000000000000000000000000000000000000815260040161144690611cbd565b60405180910390fd5b6002600581111561146357611462611fa1565b5b600560009054906101000a900460ff16600581111561148557611484611fa1565b5b146114c5576040517f08c379a00000000000000000000000000000000000000000000000000000000081526004016114bc90611c1d565b60405180910390fd5b7f1b8e19a458c1bcd88553332c518cc5c4e2d5793e712ee766d4f1c14f672ef1f560405160405180910390a16003600560006101000a81548160ff0219169083600581111561151757611516611fa1565b5b02179055507f0a97a4ee45751e2abf3e4fc8946939630b11b371ea8ae39ccdc3056e98f5cc3f6002600360405161154f929190611b84565b60405180910390a1565b600033905090565b60008060009054906101000a900473ffffffffffffffffffffffffffffffffffffffff169050816000806101000a81548173ffffffffffffffffffffffffffffffffffffffff021916908373ffffffffffffffffffffffffffffffffffffffff1602179055508173ffffffffffffffffffffffffffffffffffffffff168173ffffffffffffffffffffffffffffffffffffffff167f8be0079c531659141344cd1fd0a4f28419497f9722a3daafe3b4186f6b6457e060405160405180910390a35050565b600081836116339190611e16565b905092915050565b82805461164790611f0f565b90600052602060002090601f01602090048101928261166957600085556116b0565b82601f1061168257805160ff19168380011785556116b0565b828001600101855582156116b0579182015b828111156116af578251825591602001919060010190611694565b5b5090506116bd91906116db565b5090565b604051806040016040528060608152602001600081525090565b5b808211156116f45760008160009055506001016116dc565b5090565b600061170b61170684611d7f565b611d5a565b90508281526020810184848401111561172757611726612062565b5b611732848285611ecd565b509392505050565b6000813590506117498161233a565b92915050565b600082601f8301126117645761176361205d565b5b81356117748482602086016116f8565b91505092915050565b60008135905061178c81612351565b92915050565b6000602082840312156117a8576117a761206c565b5b60006117b68482850161173a565b91505092915050565b6000602082840312156117d5576117d461206c565b5b600082013567ffffffffffffffff8111156117f3576117f2612067565b5b6117ff8482850161174f565b91505092915050565b60006020828403121561181e5761181d61206c565b5b600061182c8482850161177d565b91505092915050565b6000611841838361184d565b60208301905092915050565b61185681611e6c565b82525050565b61186581611e6c565b82525050565b600061187682611dc0565b6118808185611de3565b935061188b83611db0565b8060005b838110156118bc5781516118a38882611835565b97506118ae83611dd6565b92505060018101905061188f565b5085935050505092915050565b6118d281611ebb565b82525050565b60006118e382611dcb565b6118ed8185611df4565b93506118fd818560208601611edc565b61190681612071565b840191505092915050565b600061191c82611dcb565b6119268185611e05565b9350611936818560208601611edc565b61193f81612071565b840191505092915050565b6000611957602a83611e05565b915061196282612082565b604082019050919050565b600061197a602683611e05565b9150611985826120d1565b604082019050919050565b600061199d602c83611e05565b91506119a882612120565b604082019050919050565b60006119c0601383611e05565b91506119cb8261216f565b602082019050919050565b60006119e3603b83611e05565b91506119ee82612198565b604082019050919050565b6000611a06601f83611e05565b9150611a11826121e7565b602082019050919050565b6000611a29602283611e05565b9150611a3482612210565b604082019050919050565b6000611a4c602083611e05565b9150611a578261225f565b602082019050919050565b6000611a6f602883611e05565b9150611a7a82612288565b604082019050919050565b6000611a92602483611e05565b9150611a9d826122d7565b604082019050919050565b60006040830160008301518482036000860152611ac582826118d8565b9150506020830151611ada6020860182611ae5565b508091505092915050565b611aee81611eb1565b82525050565b611afd81611eb1565b82525050565b6000602082019050611b18600083018461185c565b92915050565b6000604082019050611b33600083018561185c565b611b406020830184611af4565b9392505050565b60006020820190508181036000830152611b61818461186b565b905092915050565b6000602082019050611b7e60008301846118c9565b92915050565b6000604082019050611b9960008301856118c9565b611ba660208301846118c9565b9392505050565b60006040820190508181036000830152611bc78185611911565b9050611bd66020830184611af4565b9392505050565b60006020820190508181036000830152611bf68161194a565b9050919050565b60006020820190508181036000830152611c168161196d565b9050919050565b60006020820190508181036000830152611c3681611990565b9050919050565b60006020820190508181036000830152611c56816119b3565b9050919050565b60006020820190508181036000830152611c76816119d6565b9050919050565b60006020820190508181036000830152611c96816119f9565b9050919050565b60006020820190508181036000830152611cb681611a1c565b9050919050565b60006020820190508181036000830152611cd681611a3f565b9050919050565b60006020820190508181036000830152611cf681611a62565b9050919050565b60006020820190508181036000830152611d1681611a85565b9050919050565b60006020820190508181036000830152611d378184611aa8565b905092915050565b6000602082019050611d546000830184611af4565b92915050565b6000611d64611d75565b9050611d708282611f41565b919050565b6000604051905090565b600067ffffffffffffffff821115611d9a57611d9961202e565b5b611da382612071565b9050602081019050919050565b6000819050602082019050919050565b600081519050919050565b600081519050919050565b6000602082019050919050565b600082825260208201905092915050565b600082825260208201905092915050565b600082825260208201905092915050565b6000611e2182611eb1565b9150611e2c83611eb1565b9250827fffffffffffffffffffffffffffffffffffffffffffffffffffffffffffffffff03821115611e6157611e60611f72565b5b828201905092915050565b6000611e7782611e91565b9050919050565b6000819050611e8c82612326565b919050565b600073ffffffffffffffffffffffffffffffffffffffff82169050919050565b6000819050919050565b6000611ec682611e7e565b9050919050565b82818337600083830152505050565b60005b83811015611efa578082015181840152602081019050611edf565b83811115611f09576000848401525b50505050565b60006002820490506001821680611f2757607f821691505b60208210811415611f3b57611f3a611fd0565b5b50919050565b611f4a82612071565b810181811067ffffffffffffffff82111715611f6957611f6861202e565b5b80604052505050565b7f4e487b7100000000000000000000000000000000000000000000000000000000600052601160045260246000fd5b7f4e487b7100000000000000000000000000000000000000000000000000000000600052602160045260246000fd5b7f4e487b7100000000000000000000000000000000000000000000000000000000600052602260045260246000fd5b7f4e487b7100000000000000000000000000000000000000000000000000000000600052603260045260246000fd5b7f4e487b7100000000000000000000000000000000000000000000000000000000600052604160045260246000fd5b600080fd5b600080fd5b600080fd5b600080fd5b6000601f19601f8301169050919050565b7f4c612073657373696f6e2064652070726f706f736974696f6e206e276573742060008201527f706173204f757665727400000000000000000000000000000000000000000000602082015250565b7f4f776e61626c653a206e6577206f776e657220697320746865207a65726f206160008201527f6464726573730000000000000000000000000000000000000000000000000000602082015250565b7f4c612053657373696f6e206427656e72656769737472656d656e7420646f697460008201527f2065747265206f75766572740000000000000000000000000000000000000000602082015250565b7f566f7573206176657a2064656a6120766f746500000000000000000000000000600082015250565b7f4c612073657373696f6e206427656e726567697374726520706f7572206c612060008201527f77686974656c69737420646f69742065747265206f7576657274650000000000602082015250565b7f4e6520666967757265207061732064616e73206c612077686974656c69737400600082015250565b7f43657474652041647265737365206573742064656a6120656e7265676973747260008201527f6521000000000000000000000000000000000000000000000000000000000000602082015250565b7f4f776e61626c653a2063616c6c6572206973206e6f7420746865206f776e6572600082015250565b7f4c612053657373696f6e20646520766f746520646f697420657472652066657260008201527f6d65206176616e74000000000000000000000000000000000000000000000000602082015250565b7f4c612053657373696f6e20646520766f746520646f69742065747265206f757660008201527f6572746500000000000000000000000000000000000000000000000000000000602082015250565b6006811061233757612336611fa1565b5b50565b61234381611e6c565b811461234e57600080fd5b50565b61235a81611eb1565b811461236557600080fd5b5056fea26469706673582212202cb16b9fa1bbda20f54b50e7bad0a05c3d7738402843ac60a331d14119f1075764736f6c63430008070033",
  "immutableReferences": {},
  "source": "// SPDX-License-Identifier: MIT\r\npragma solidity 0.8.7;\r\nimport \"../node_modules/@openzeppelin/contracts/access/Ownable.sol\";\r\nimport \"../node_modules/@openzeppelin/contracts/utils/math/SafeMath.sol\";\r\n\r\n/*********************************************************************************************************\r\n * @title Voting\r\n * @author\r\n * @dev\r\n ***********************************************************************************************************/\r\ncontract Voting is Ownable{\r\n    \r\n    using SafeMath for uint256;\r\n    \r\n    struct Voter {\r\n        uint votedProposalId;\r\n        bool isRegistered;\r\n        bool hasVoted;\r\n    }\r\n\r\n    struct Proposal {\r\n        string description;\r\n        uint voteCount;\r\n    }\r\n    \r\n    enum WorkflowStatus {\r\n        RegisteringVoters,\r\n        ProposalsRegistrationStarted,\r\n        ProposalsRegistrationEnded,\r\n        VotingSessionStarted,\r\n        VotingSessionEnded,\r\n        VotesTallied\r\n    }\r\n\r\n    mapping (address => Voter) private electeur;\r\n    address[] public addresses;\r\n    Proposal [] public proposition;\r\n    uint public winningProposalId;\r\n    WorkflowStatus public Status = WorkflowStatus.RegisteringVoters;\r\n    uint max=0;\r\n\r\n    event VoterRegistered(address voterAddress);\r\n    event ProposalsRegistrationStarted();\r\n    event ProposalsRegistrationEnded();\r\n    event ProposalRegistered(uint proposalId);\r\n    event VotingSessionStarted();\r\n    event VotingSessionEnded();\r\n    event Voted (address voter, uint proposalId);\r\n    event VotesTallied();\r\n    event WorkflowStatusChange(WorkflowStatus previousStatus, WorkflowStatus newStatus);\r\n    \r\n    \r\n\r\n\r\n     \r\n/*********************************************************************************************************\r\n * @dev L'administrateur du vote enregistre une liste blanche d'lecteurs identifis par leur adresse Ethereum.\r\n * @param _address Adresse Ethereum qui doit etre enregistre\r\n ***********************************************************************************************************/\r\n \r\n \r\n   function whitelist(address  _address) public onlyOwner{\r\n       require(!electeur[_address].isRegistered, \"Cette Adresse est deja enregistre!\");\r\n       require(Status==WorkflowStatus.RegisteringVoters,\"La session d'enregistre pour la whitelist doit etre ouverte\");\r\n       electeur[_address].isRegistered=true;\r\n       addresses.push(_address);\r\n       emit VoterRegistered(_address);\r\n       \r\n   }\r\n    function Nb_Electeur() public view returns(uint){\r\n        return addresses.length;\r\n    }\r\n   \r\n/*********************************************************************************************************\r\n * @dev L'administrateur du vote enregistre une liste blanche d'lecteurs identifis par leur adresse Ethereum.\r\n * @param _address Adresse Ethereum qui doit etre enregistre\r\n ***********************************************************************************************************/\r\n   function getAddresses() public view returns(address[] memory){\r\n       return addresses;\r\n   }\r\n   \r\n/*********************************************************************************************************\r\n * @dev StartSessionEnrigrement'administrateur du vote commence la session d'enregistrement de la proposition\r\n * \r\n ***********************************************************************************************************/\r\n   \r\n    function StartEnregristrement () public onlyOwner{\r\n        require(Status==WorkflowStatus.RegisteringVoters,\"La session d'enregistre pour la whitelist doit etre ouverte\");\r\n        emit ProposalsRegistrationStarted();\r\n        Status = WorkflowStatus.ProposalsRegistrationStarted;\r\n        emit WorkflowStatusChange(WorkflowStatus.VotingSessionEnded,WorkflowStatus.ProposalsRegistrationStarted);\r\n    }\r\n    \r\n/*********************************************************************************************************\r\n * @dev Les lecteurs inscrits sont autoriss  enregistrer leurs propositions pendant que la session d'enregistrement est active.\r\n * @param _information _information pour leurs propositions\r\n * \r\n ***********************************************************************************************************/\r\n    \r\n    function Addproposal (string memory  _information) public{\r\n        require(Status == WorkflowStatus.ProposalsRegistrationStarted,\"La session de proposition n'est pas Ouvert\");\r\n        require(electeur[msg.sender].isRegistered==true,\"Ne figure pas dans la whitelist\");\r\n        Proposal memory newPropo = Proposal(_information, 0); \r\n        proposition.push(newPropo);\r\n        emit ProposalRegistered(proposition.length);\r\n    }\r\n\r\n     function Nb_Proposition() public view returns(uint){\r\n        return proposition.length;\r\n    }\r\n    \r\n    \r\n/*********************************************************************************************************\r\n * @dev L'administrateur de vote met fin  la session d'enregistrement des propositions.\r\n * \r\n ***********************************************************************************************************/ \r\n \r\n    function EndEnregristrement () public onlyOwner{\r\n        require(Status==WorkflowStatus.ProposalsRegistrationStarted);\r\n       emit ProposalsRegistrationEnded();\r\n       Status = WorkflowStatus.ProposalsRegistrationEnded;\r\n       emit WorkflowStatusChange(WorkflowStatus.ProposalsRegistrationStarted,WorkflowStatus.ProposalsRegistrationEnded);\r\n    }\r\n    \r\n/*********************************************************************************************************\r\n * @dev L'administrateur du vote commence la session de vote.\r\n * \r\n ***********************************************************************************************************/ \r\n \r\n    function StartVote () public onlyOwner{\r\n        require(Status==WorkflowStatus.ProposalsRegistrationEnded,\"La Session d'enregistrement doit etre ouvert\");\r\n       emit VotingSessionStarted();\r\n       Status = WorkflowStatus.VotingSessionStarted;\r\n       emit WorkflowStatusChange(WorkflowStatus.ProposalsRegistrationEnded,WorkflowStatus.VotingSessionStarted);\r\n    }\r\n    \r\n/*********************************************************************************************************\r\n * @dev Les lecteurs inscrits votent pour leurs propositions prfres.\r\n * @param idPropal l'identifiant de la propositions\r\n ***********************************************************************************************************/ \r\n \r\n    function Vote (uint idPropal) public {\r\n        require(Status == WorkflowStatus.VotingSessionStarted,\"La Session de vote doit etre ferme avant\");\r\n        require(electeur[msg.sender].isRegistered==true,\"Ne figure pas dans la whitelist\");\r\n        require(!electeur[msg.sender].hasVoted,\"Vous avez deja vote\");\r\n        proposition[idPropal].voteCount=proposition[idPropal].voteCount.add(1);\r\n        electeur[msg.sender].hasVoted=true;\r\n        electeur[msg.sender].votedProposalId=idPropal;\r\n        if (proposition[idPropal].voteCount >max){\r\n               max =proposition[idPropal].voteCount;\r\n               winningProposalId=idPropal;\r\n               emit VotesTallied();\r\n        }\r\n        \r\n        emit Voted(msg.sender,idPropal);\r\n       \r\n    }\r\n    \r\n/*********************************************************************************************************\r\n * @dev L'administrateur du vote met fin  la session de vote.\r\n * \r\n ***********************************************************************************************************/    \r\n   \r\n    function EndVote () public onlyOwner{\r\n        require(Status==WorkflowStatus.VotingSessionStarted,\"La Session de vote doit etre ouverte\");\r\n       emit VotingSessionEnded();\r\n       Status = WorkflowStatus.VotingSessionEnded;\r\n       emit WorkflowStatusChange(WorkflowStatus.VotingSessionStarted,WorkflowStatus.VotingSessionEnded);\r\n    }\r\n   \r\n\r\n    \r\n/*********************************************************************************************************\r\n * @dev \r\n * @return Proposal return l'objet Proposal qui a gagn les elections\r\n *******************************************************************************************************/    \r\n    \r\n    function CheckWinner () public view returns(Proposal memory){\r\n      return proposition[winningProposalId];  \r\n    }\r\n    \r\n    \r\n/*********************************************************************************************************\r\n * @dev verifie que une Adresse est enregistrement\r\n * @param _address Adresse Ethereum qui doit verifie sont inscription dans la whitelist\r\n * @return bool retourne vrai si \"Dans la whiteliste\" sinon faux \r\n *******************************************************************************************************/       \r\n   function isWhitelisted(address  _address) public view returns (uint){\r\n       if(electeur[_address].isRegistered==true){\r\n           return 1;\r\n       }\r\n       return 0;\r\n   }\r\n    \r\n}",
  "sourcePath": "C:\\Users\\xtrem\\OneDrive\\Documents\\LearnDAPP_Alyra\\voting-react\\contracts\\Voting.sol",
  "compiler": {
    "name": "solc",
    "version": "0.8.7+commit.e28d00a7.Emscripten.clang"
  },
  "schemaVersion": "3.4.3",
  "updatedAt": "2021-10-13T14:07:12.940Z",
  "networkType": "ethereum",
  "devdoc": {
    "kind": "dev",
    "methods": {
      "owner()": {
        "details": "Returns the address of the current owner."
      },
      "renounceOwnership()": {
        "details": "Leaves the contract without owner. It will not be possible to call `onlyOwner` functions anymore. Can only be called by the current owner. NOTE: Renouncing ownership will leave the contract without an owner, thereby removing any functionality that is only available to the owner."
      },
      "transferOwnership(address)": {
        "details": "Transfers ownership of the contract to a new account (`newOwner`). Can only be called by the current owner."
      }
    },
    "version": 1
  },
  "userdoc": {
    "kind": "user",
    "methods": {},
    "version": 1
  }
}