{
  "contractName": "Voting",
  "abi": [
    {
      "anonymous": false,
      "inputs": [
        {
          "indexed": true,
          "internalType": "address",
          "name": "previousOwner",
          "type": "address"
        },
        {
          "indexed": true,
          "internalType": "address",
          "name": "newOwner",
          "type": "address"
        }
      ],
      "name": "OwnershipTransferred",
      "type": "event"
    },
    {
      "anonymous": false,
      "inputs": [
        {
          "indexed": false,
          "internalType": "uint256",
          "name": "proposalId",
          "type": "uint256"
        }
      ],
      "name": "ProposalRegistered",
      "type": "event"
    },
    {
      "anonymous": false,
      "inputs": [],
      "name": "ProposalsRegistrationEnded",
      "type": "event"
    },
    {
      "anonymous": false,
      "inputs": [],
      "name": "ProposalsRegistrationStarted",
      "type": "event"
    },
    {
      "anonymous": false,
      "inputs": [
        {
          "indexed": false,
          "internalType": "address",
          "name": "voter",
          "type": "address"
        },
        {
          "indexed": false,
          "internalType": "uint256",
          "name": "proposalId",
          "type": "uint256"
        }
      ],
      "name": "Voted",
      "type": "event"
    },
    {
      "anonymous": false,
      "inputs": [
        {
          "indexed": false,
          "internalType": "address",
          "name": "voterAddress",
          "type": "address"
        }
      ],
      "name": "VoterRegistered",
      "type": "event"
    },
    {
      "anonymous": false,
      "inputs": [],
      "name": "VotesTallied",
      "type": "event"
    },
    {
      "anonymous": false,
      "inputs": [],
      "name": "VotingSessionEnded",
      "type": "event"
    },
    {
      "anonymous": false,
      "inputs": [],
      "name": "VotingSessionStarted",
      "type": "event"
    },
    {
      "anonymous": false,
      "inputs": [
        {
          "indexed": false,
          "internalType": "enum Voting.WorkflowStatus",
          "name": "previousStatus",
          "type": "uint8"
        },
        {
          "indexed": false,
          "internalType": "enum Voting.WorkflowStatus",
          "name": "newStatus",
          "type": "uint8"
        }
      ],
      "name": "WorkflowStatusChange",
      "type": "event"
    },
    {
      "inputs": [],
      "name": "Status",
      "outputs": [
        {
          "internalType": "enum Voting.WorkflowStatus",
          "name": "",
          "type": "uint8"
        }
      ],
      "stateMutability": "view",
      "type": "function",
      "constant": true
    },
    {
      "inputs": [
        {
          "internalType": "uint256",
          "name": "",
          "type": "uint256"
        }
      ],
      "name": "addresses",
      "outputs": [
        {
          "internalType": "address",
          "name": "",
          "type": "address"
        }
      ],
      "stateMutability": "view",
      "type": "function",
      "constant": true
    },
    {
      "inputs": [],
      "name": "owner",
      "outputs": [
        {
          "internalType": "address",
          "name": "",
          "type": "address"
        }
      ],
      "stateMutability": "view",
      "type": "function",
      "constant": true
    },
    {
      "inputs": [
        {
          "internalType": "uint256",
          "name": "",
          "type": "uint256"
        }
      ],
      "name": "proposition",
      "outputs": [
        {
          "internalType": "string",
          "name": "description",
          "type": "string"
        },
        {
          "internalType": "uint256",
          "name": "voteCount",
          "type": "uint256"
        }
      ],
      "stateMutability": "view",
      "type": "function",
      "constant": true
    },
    {
      "inputs": [],
      "name": "renounceOwnership",
      "outputs": [],
      "stateMutability": "nonpayable",
      "type": "function"
    },
    {
      "inputs": [
        {
          "internalType": "address",
          "name": "newOwner",
          "type": "address"
        }
      ],
      "name": "transferOwnership",
      "outputs": [],
      "stateMutability": "nonpayable",
      "type": "function"
    },
    {
      "inputs": [],
      "name": "winningProposalId",
      "outputs": [
        {
          "internalType": "uint256",
          "name": "",
          "type": "uint256"
        }
      ],
      "stateMutability": "view",
      "type": "function",
      "constant": true
    },
    {
      "inputs": [
        {
          "internalType": "address",
          "name": "_address",
          "type": "address"
        }
      ],
      "name": "whitelist",
      "outputs": [],
      "stateMutability": "nonpayable",
      "type": "function"
    },
    {
      "inputs": [],
      "name": "getAddresses",
      "outputs": [
        {
          "internalType": "address[]",
          "name": "",
          "type": "address[]"
        }
      ],
      "stateMutability": "view",
      "type": "function",
      "constant": true
    },
    {
      "inputs": [],
      "name": "StartEnregristrement",
      "outputs": [],
      "stateMutability": "nonpayable",
      "type": "function"
    },
    {
      "inputs": [
        {
          "internalType": "string",
          "name": "_information",
          "type": "string"
        }
      ],
      "name": "Addproposal",
      "outputs": [],
      "stateMutability": "nonpayable",
      "type": "function"
    },
    {
      "inputs": [],
      "name": "EndEnregristrement",
      "outputs": [],
      "stateMutability": "nonpayable",
      "type": "function"
    },
    {
      "inputs": [],
      "name": "StartVote",
      "outputs": [],
      "stateMutability": "nonpayable",
      "type": "function"
    },
    {
      "inputs": [
        {
          "internalType": "uint256",
          "name": "idPropal",
          "type": "uint256"
        }
      ],
      "name": "Vote",
      "outputs": [],
      "stateMutability": "nonpayable",
      "type": "function"
    },
    {
      "inputs": [],
      "name": "EndVote",
      "outputs": [],
      "stateMutability": "nonpayable",
      "type": "function"
    },
    {
      "inputs": [],
      "name": "Comptabilise",
      "outputs": [],
      "stateMutability": "nonpayable",
      "type": "function"
    },
    {
      "inputs": [],
      "name": "CheckWinner",
      "outputs": [
        {
          "components": [
            {
              "internalType": "string",
              "name": "description",
              "type": "string"
            },
            {
              "internalType": "uint256",
              "name": "voteCount",
              "type": "uint256"
            }
          ],
          "internalType": "struct Voting.Proposal",
          "name": "",
          "type": "tuple"
        }
      ],
      "stateMutability": "view",
      "type": "function",
      "constant": true
    },
    {
      "inputs": [
        {
          "internalType": "address",
          "name": "_address",
          "type": "address"
        }
      ],
      "name": "isWhitelisted",
      "outputs": [
        {
          "internalType": "uint256",
          "name": "",
          "type": "uint256"
        }
      ],
      "stateMutability": "view",
      "type": "function",
      "constant": true
    }
  ],
  "bytecode": "0x60806040526000600660006101000a81548160ff021916908360058111156200002d576200002c62000139565b5b02179055503480156200003f57600080fd5b5062000060620000546200006d60201b60201c565b6200007560201b60201c565b6001808190555062000168565b600033905090565b60008060009054906101000a900473ffffffffffffffffffffffffffffffffffffffff169050816000806101000a81548173ffffffffffffffffffffffffffffffffffffffff021916908373ffffffffffffffffffffffffffffffffffffffff1602179055508173ffffffffffffffffffffffffffffffffffffffff168173ffffffffffffffffffffffffffffffffffffffff167f8be0079c531659141344cd1fd0a4f28419497f9722a3daafe3b4186f6b6457e060405160405180910390a35050565b7f4e487b7100000000000000000000000000000000000000000000000000000000600052602160045260246000fd5b61259180620001786000396000f3fe608060405234801561001057600080fd5b50600436106101165760003560e01c8063a39fac12116100a2578063dcd6a5cd11610071578063dcd6a5cd14610272578063edf26d9b1461028e578063f2fde38b146102be578063f8c37ae8146102da578063ff943e3a146102e457610116565b8063a39fac12146101fb578063b4c4197114610219578063c64963c51461024a578063c68e2a491461026857610116565b8063715018a6116100e9578063715018a61461018f57806372a413a9146101995780638da5cb5b146101a35780639b19251a146101c1578063a2f3d16e146101dd57610116565b806318b8fc1b1461011b5780633af32abf1461012557806345f09ce91461015557806361b3f07a14610173575b600080fd5b6101236102ee565b005b61013f600480360381019061013a91906118d0565b61054c565b60405161014c9190611ec0565b60405180910390f35b61015d6105bd565b60405161016a9190611cca565b60405180910390f35b61018d600480360381019061018891906118fd565b6105d0565b005b61019761074f565b005b6101a16107d7565b005b6101ab61095d565b6040516101b89190611c64565b60405180910390f35b6101db60048036038101906101d691906118d0565b610986565b005b6101e5610c00565b6040516101f29190611e9e565b60405180910390f35b610203610cd8565b6040516102109190611ca8565b60405180910390f35b610233600480360381019061022e9190611946565b610d66565b604051610241929190611d0e565b60405180910390f35b610252610e22565b60405161025f9190611ec0565b60405180910390f35b610270610e28565b005b61028c60048036038101906102879190611946565b610f78565b005b6102a860048036038101906102a39190611946565b611254565b6040516102b59190611c64565b60405180910390f35b6102d860048036038101906102d391906118d0565b611293565b005b6102e261138b565b005b6102ec611511565b005b6102f6611697565b73ffffffffffffffffffffffffffffffffffffffff1661031461095d565b73ffffffffffffffffffffffffffffffffffffffff161461036a576040517f08c379a000000000000000000000000000000000000000000000000000000000815260040161036190611e1e565b60405180910390fd5b600260015414156103b0576040517f08c379a00000000000000000000000000000000000000000000000000000000081526004016103a790611e7e565b60405180910390fd5b6002600181905550600460058111156103cc576103cb61216b565b5b600660009054906101000a900460ff1660058111156103ee576103ed61216b565b5b1461042e576040517f08c379a000000000000000000000000000000000000000000000000000000000815260040161042590611e3e565b60405180910390fd5b6000805b6004805490508110156104af578160048281548110610454576104536121c9565b5b906000526020600020906002020160010154111561049c57600481815481106104805761047f6121c9565b5b9060005260206000209060020201600101549150806005819055505b80806104a7906120f3565b915050610432565b507f0e5e95ff8725ab3e7a4b6b59998a4c344c2aa8d1485f5e60cb7f337768e6134760405160405180910390a16005600660006101000a81548160ff021916908360058111156105025761050161216b565b5b02179055507f0a97a4ee45751e2abf3e4fc8946939630b11b371ea8ae39ccdc3056e98f5cc3f6004600560405161053a929190611ce5565b60405180910390a15060018081905550565b600060011515600260008473ffffffffffffffffffffffffffffffffffffffff1673ffffffffffffffffffffffffffffffffffffffff16815260200190815260200160002060010160009054906101000a900460ff16151514156105b357600190506105b8565b600090505b919050565b600660009054906101000a900460ff1681565b600160058111156105e4576105e361216b565b5b600660009054906101000a900460ff1660058111156106065761060561216b565b5b14610646576040517f08c379a000000000000000000000000000000000000000000000000000000000815260040161063d90611d3e565b60405180910390fd5b60011515600260003373ffffffffffffffffffffffffffffffffffffffff1673ffffffffffffffffffffffffffffffffffffffff16815260200190815260200160002060010160009054906101000a900460ff161515146106dc576040517f08c379a00000000000000000000000000000000000000000000000000000000081526004016106d390611dde565b60405180910390fd5b60006040518060400160405280838152602001600081525090506004819080600181540180825580915050600190039060005260206000209060020201600090919091909150600082015181600001908051906020019061073e929190611779565b506020820151816001015550505050565b610757611697565b73ffffffffffffffffffffffffffffffffffffffff1661077561095d565b73ffffffffffffffffffffffffffffffffffffffff16146107cb576040517f08c379a00000000000000000000000000000000000000000000000000000000081526004016107c290611e1e565b60405180910390fd5b6107d5600061169f565b565b6107df611697565b73ffffffffffffffffffffffffffffffffffffffff166107fd61095d565b73ffffffffffffffffffffffffffffffffffffffff1614610853576040517f08c379a000000000000000000000000000000000000000000000000000000000815260040161084a90611e1e565b60405180910390fd5b600360058111156108675761086661216b565b5b600660009054906101000a900460ff1660058111156108895761088861216b565b5b146108c9576040517f08c379a00000000000000000000000000000000000000000000000000000000081526004016108c090611e5e565b60405180910390fd5b7fc379d349a6301baf50fb2f98d829f4ae10b1cdb7c66f4e4d8117302df7b8cd4c60405160405180910390a16004600660006101000a81548160ff0219169083600581111561091b5761091a61216b565b5b02179055507f0a97a4ee45751e2abf3e4fc8946939630b11b371ea8ae39ccdc3056e98f5cc3f60036004604051610953929190611ce5565b60405180910390a1565b60008060009054906101000a900473ffffffffffffffffffffffffffffffffffffffff16905090565b61098e611697565b73ffffffffffffffffffffffffffffffffffffffff166109ac61095d565b73ffffffffffffffffffffffffffffffffffffffff1614610a02576040517f08c379a00000000000000000000000000000000000000000000000000000000081526004016109f990611e1e565b60405180910390fd5b600260008273ffffffffffffffffffffffffffffffffffffffff1673ffffffffffffffffffffffffffffffffffffffff16815260200190815260200160002060010160009054906101000a900460ff1615610a92576040517f08c379a0000000000000000000000000000000000000000000000000000000008152600401610a8990611dfe565b60405180910390fd5b60006005811115610aa657610aa561216b565b5b600660009054906101000a900460ff166005811115610ac857610ac761216b565b5b14610b08576040517f08c379a0000000000000000000000000000000000000000000000000000000008152600401610aff90611dbe565b60405180910390fd5b6001600260008373ffffffffffffffffffffffffffffffffffffffff1673ffffffffffffffffffffffffffffffffffffffff16815260200190815260200160002060010160006101000a81548160ff0219169083151502179055506003819080600181540180825580915050600190039060005260206000200160009091909190916101000a81548173ffffffffffffffffffffffffffffffffffffffff021916908373ffffffffffffffffffffffffffffffffffffffff1602179055507fb6be2187d059cc2a55fe29e0e503b566e1e0f8c8780096e185429350acffd3dd81604051610bf59190611c64565b60405180910390a150565b610c086117ff565b600460055481548110610c1e57610c1d6121c9565b5b9060005260206000209060020201604051806040016040529081600082018054610c4790612090565b80601f0160208091040260200160405190810160405280929190818152602001828054610c7390612090565b8015610cc05780601f10610c9557610100808354040283529160200191610cc0565b820191906000526020600020905b815481529060010190602001808311610ca357829003601f168201915b50505050508152602001600182015481525050905090565b60606003805480602002602001604051908101604052809291908181526020018280548015610d5c57602002820191906000526020600020905b8160009054906101000a900473ffffffffffffffffffffffffffffffffffffffff1673ffffffffffffffffffffffffffffffffffffffff1681526020019060010190808311610d12575b5050505050905090565b60048181548110610d7657600080fd5b9060005260206000209060020201600091509050806000018054610d9990612090565b80601f0160208091040260200160405190810160405280929190818152602001828054610dc590612090565b8015610e125780601f10610de757610100808354040283529160200191610e12565b820191906000526020600020905b815481529060010190602001808311610df557829003601f168201915b5050505050908060010154905082565b60055481565b610e30611697565b73ffffffffffffffffffffffffffffffffffffffff16610e4e61095d565b73ffffffffffffffffffffffffffffffffffffffff1614610ea4576040517f08c379a0000000000000000000000000000000000000000000000000000000008152600401610e9b90611e1e565b60405180910390fd5b60016005811115610eb857610eb761216b565b5b600660009054906101000a900460ff166005811115610eda57610ed961216b565b5b14610ee457600080fd5b7f240cb87b2e4df4c318e72bd714d45a9cad60249e883ff56b1fffd83a4595a8fa60405160405180910390a16002600660006101000a81548160ff02191690836005811115610f3657610f3561216b565b5b02179055507f0a97a4ee45751e2abf3e4fc8946939630b11b371ea8ae39ccdc3056e98f5cc3f60016002604051610f6e929190611ce5565b60405180910390a1565b60036005811115610f8c57610f8b61216b565b5b600660009054906101000a900460ff166005811115610fae57610fad61216b565b5b14610fee576040517f08c379a0000000000000000000000000000000000000000000000000000000008152600401610fe590611e3e565b60405180910390fd5b60011515600260003373ffffffffffffffffffffffffffffffffffffffff1673ffffffffffffffffffffffffffffffffffffffff16815260200190815260200160002060010160009054906101000a900460ff16151514611084576040517f08c379a000000000000000000000000000000000000000000000000000000000815260040161107b90611dde565b60405180910390fd5b600260003373ffffffffffffffffffffffffffffffffffffffff1673ffffffffffffffffffffffffffffffffffffffff16815260200190815260200160002060010160019054906101000a900460ff1615611114576040517f08c379a000000000000000000000000000000000000000000000000000000000815260040161110b90611d9e565b60405180910390fd5b61114d60016004838154811061112d5761112c6121c9565b5b90600052602060002090600202016001015461176390919063ffffffff16565b60048281548110611161576111606121c9565b5b9060005260206000209060020201600101819055506001600260003373ffffffffffffffffffffffffffffffffffffffff1673ffffffffffffffffffffffffffffffffffffffff16815260200190815260200160002060010160016101000a81548160ff02191690831515021790555080600260003373ffffffffffffffffffffffffffffffffffffffff1673ffffffffffffffffffffffffffffffffffffffff168152602001908152602001600020600001819055507f4d99b957a2bc29a30ebd96a7be8e68fe50a3c701db28a91436490b7d53870ca43382604051611249929190611c7f565b60405180910390a150565b6003818154811061126457600080fd5b906000526020600020016000915054906101000a900473ffffffffffffffffffffffffffffffffffffffff1681565b61129b611697565b73ffffffffffffffffffffffffffffffffffffffff166112b961095d565b73ffffffffffffffffffffffffffffffffffffffff161461130f576040517f08c379a000000000000000000000000000000000000000000000000000000000815260040161130690611e1e565b60405180910390fd5b600073ffffffffffffffffffffffffffffffffffffffff168173ffffffffffffffffffffffffffffffffffffffff16141561137f576040517f08c379a000000000000000000000000000000000000000000000000000000000815260040161137690611d5e565b60405180910390fd5b6113888161169f565b50565b611393611697565b73ffffffffffffffffffffffffffffffffffffffff166113b161095d565b73ffffffffffffffffffffffffffffffffffffffff1614611407576040517f08c379a00000000000000000000000000000000000000000000000000000000081526004016113fe90611e1e565b60405180910390fd5b6000600581111561141b5761141a61216b565b5b600660009054906101000a900460ff16600581111561143d5761143c61216b565b5b1461147d576040517f08c379a000000000000000000000000000000000000000000000000000000000815260040161147490611dbe565b60405180910390fd5b7f344c25562921d075a298d34b6dd1fd00d36ff293974539dfd4a8c625d9f0064c60405160405180910390a16001600660006101000a81548160ff021916908360058111156114cf576114ce61216b565b5b02179055507f0a97a4ee45751e2abf3e4fc8946939630b11b371ea8ae39ccdc3056e98f5cc3f60046001604051611507929190611ce5565b60405180910390a1565b611519611697565b73ffffffffffffffffffffffffffffffffffffffff1661153761095d565b73ffffffffffffffffffffffffffffffffffffffff161461158d576040517f08c379a000000000000000000000000000000000000000000000000000000000815260040161158490611e1e565b60405180910390fd5b600260058111156115a1576115a061216b565b5b600660009054906101000a900460ff1660058111156115c3576115c261216b565b5b14611603576040517f08c379a00000000000000000000000000000000000000000000000000000000081526004016115fa90611d7e565b60405180910390fd5b7f1b8e19a458c1bcd88553332c518cc5c4e2d5793e712ee766d4f1c14f672ef1f560405160405180910390a16003600660006101000a81548160ff021916908360058111156116555761165461216b565b5b02179055507f0a97a4ee45751e2abf3e4fc8946939630b11b371ea8ae39ccdc3056e98f5cc3f6002600360405161168d929190611ce5565b60405180910390a1565b600033905090565b60008060009054906101000a900473ffffffffffffffffffffffffffffffffffffffff169050816000806101000a81548173ffffffffffffffffffffffffffffffffffffffff021916908373ffffffffffffffffffffffffffffffffffffffff1602179055508173ffffffffffffffffffffffffffffffffffffffff168173ffffffffffffffffffffffffffffffffffffffff167f8be0079c531659141344cd1fd0a4f28419497f9722a3daafe3b4186f6b6457e060405160405180910390a35050565b600081836117719190611f97565b905092915050565b82805461178590612090565b90600052602060002090601f0160209004810192826117a757600085556117ee565b82601f106117c057805160ff19168380011785556117ee565b828001600101855582156117ee579182015b828111156117ed5782518255916020019190600101906117d2565b5b5090506117fb9190611819565b5090565b604051806040016040528060608152602001600081525090565b5b8082111561183257600081600090555060010161181a565b5090565b600061184961184484611f00565b611edb565b9050828152602081018484840111156118655761186461222c565b5b61187084828561204e565b509392505050565b6000813590506118878161252d565b92915050565b600082601f8301126118a2576118a1612227565b5b81356118b2848260208601611836565b91505092915050565b6000813590506118ca81612544565b92915050565b6000602082840312156118e6576118e5612236565b5b60006118f484828501611878565b91505092915050565b60006020828403121561191357611912612236565b5b600082013567ffffffffffffffff81111561193157611930612231565b5b61193d8482850161188d565b91505092915050565b60006020828403121561195c5761195b612236565b5b600061196a848285016118bb565b91505092915050565b600061197f838361198b565b60208301905092915050565b61199481611fed565b82525050565b6119a381611fed565b82525050565b60006119b482611f41565b6119be8185611f64565b93506119c983611f31565b8060005b838110156119fa5781516119e18882611973565b97506119ec83611f57565b9250506001810190506119cd565b5085935050505092915050565b611a108161203c565b82525050565b6000611a2182611f4c565b611a2b8185611f75565b9350611a3b81856020860161205d565b611a448161223b565b840191505092915050565b6000611a5a82611f4c565b611a648185611f86565b9350611a7481856020860161205d565b611a7d8161223b565b840191505092915050565b6000611a95602a83611f86565b9150611aa08261224c565b604082019050919050565b6000611ab8602683611f86565b9150611ac38261229b565b604082019050919050565b6000611adb602c83611f86565b9150611ae6826122ea565b604082019050919050565b6000611afe601383611f86565b9150611b0982612339565b602082019050919050565b6000611b21603b83611f86565b9150611b2c82612362565b604082019050919050565b6000611b44601f83611f86565b9150611b4f826123b1565b602082019050919050565b6000611b67602283611f86565b9150611b72826123da565b604082019050919050565b6000611b8a602083611f86565b9150611b9582612429565b602082019050919050565b6000611bad602883611f86565b9150611bb882612452565b604082019050919050565b6000611bd0602483611f86565b9150611bdb826124a1565b604082019050919050565b6000611bf3601f83611f86565b9150611bfe826124f0565b602082019050919050565b60006040830160008301518482036000860152611c268282611a16565b9150506020830151611c3b6020860182611c46565b508091505092915050565b611c4f81612032565b82525050565b611c5e81612032565b82525050565b6000602082019050611c79600083018461199a565b92915050565b6000604082019050611c94600083018561199a565b611ca16020830184611c55565b9392505050565b60006020820190508181036000830152611cc281846119a9565b905092915050565b6000602082019050611cdf6000830184611a07565b92915050565b6000604082019050611cfa6000830185611a07565b611d076020830184611a07565b9392505050565b60006040820190508181036000830152611d288185611a4f565b9050611d376020830184611c55565b9392505050565b60006020820190508181036000830152611d5781611a88565b9050919050565b60006020820190508181036000830152611d7781611aab565b9050919050565b60006020820190508181036000830152611d9781611ace565b9050919050565b60006020820190508181036000830152611db781611af1565b9050919050565b60006020820190508181036000830152611dd781611b14565b9050919050565b60006020820190508181036000830152611df781611b37565b9050919050565b60006020820190508181036000830152611e1781611b5a565b9050919050565b60006020820190508181036000830152611e3781611b7d565b9050919050565b60006020820190508181036000830152611e5781611ba0565b9050919050565b60006020820190508181036000830152611e7781611bc3565b9050919050565b60006020820190508181036000830152611e9781611be6565b9050919050565b60006020820190508181036000830152611eb88184611c09565b905092915050565b6000602082019050611ed56000830184611c55565b92915050565b6000611ee5611ef6565b9050611ef182826120c2565b919050565b6000604051905090565b600067ffffffffffffffff821115611f1b57611f1a6121f8565b5b611f248261223b565b9050602081019050919050565b6000819050602082019050919050565b600081519050919050565b600081519050919050565b6000602082019050919050565b600082825260208201905092915050565b600082825260208201905092915050565b600082825260208201905092915050565b6000611fa282612032565b9150611fad83612032565b9250827fffffffffffffffffffffffffffffffffffffffffffffffffffffffffffffffff03821115611fe257611fe161213c565b5b828201905092915050565b6000611ff882612012565b9050919050565b600081905061200d82612519565b919050565b600073ffffffffffffffffffffffffffffffffffffffff82169050919050565b6000819050919050565b600061204782611fff565b9050919050565b82818337600083830152505050565b60005b8381101561207b578082015181840152602081019050612060565b8381111561208a576000848401525b50505050565b600060028204905060018216806120a857607f821691505b602082108114156120bc576120bb61219a565b5b50919050565b6120cb8261223b565b810181811067ffffffffffffffff821117156120ea576120e96121f8565b5b80604052505050565b60006120fe82612032565b91507fffffffffffffffffffffffffffffffffffffffffffffffffffffffffffffffff8214156121315761213061213c565b5b600182019050919050565b7f4e487b7100000000000000000000000000000000000000000000000000000000600052601160045260246000fd5b7f4e487b7100000000000000000000000000000000000000000000000000000000600052602160045260246000fd5b7f4e487b7100000000000000000000000000000000000000000000000000000000600052602260045260246000fd5b7f4e487b7100000000000000000000000000000000000000000000000000000000600052603260045260246000fd5b7f4e487b7100000000000000000000000000000000000000000000000000000000600052604160045260246000fd5b600080fd5b600080fd5b600080fd5b600080fd5b6000601f19601f8301169050919050565b7f4c612073657373696f6e2064652070726f706f736974696f6e206e276573742060008201527f706173204f757665727400000000000000000000000000000000000000000000602082015250565b7f4f776e61626c653a206e6577206f776e657220697320746865207a65726f206160008201527f6464726573730000000000000000000000000000000000000000000000000000602082015250565b7f4c612053657373696f6e206427656e72656769737472656d656e7420646f697460008201527f2065747265206f75766572740000000000000000000000000000000000000000602082015250565b7f566f7573206176657a2064656a6120766f746500000000000000000000000000600082015250565b7f4c612073657373696f6e206427656e726567697374726520706f7572206c612060008201527f77686974656c69737420646f69742065747265206f7576657274650000000000602082015250565b7f4e6520666967757265207061732064616e73206c612077686974656c69737400600082015250565b7f43657474652041647265737365206573742064656a6120656e7265676973747260008201527f6521000000000000000000000000000000000000000000000000000000000000602082015250565b7f4f776e61626c653a2063616c6c6572206973206e6f7420746865206f776e6572600082015250565b7f4c612053657373696f6e20646520766f746520646f697420657472652066657260008201527f6d65206176616e74000000000000000000000000000000000000000000000000602082015250565b7f4c612053657373696f6e20646520766f746520646f69742065747265206f757660008201527f6572746500000000000000000000000000000000000000000000000000000000602082015250565b7f5265656e7472616e637947756172643a207265656e7472616e742063616c6c00600082015250565b6006811061252a5761252961216b565b5b50565b61253681611fed565b811461254157600080fd5b50565b61254d81612032565b811461255857600080fd5b5056fea264697066735822122049bb9204d26d31bd9d76bbfdad2a8490ca92a11ef2302c24bded52badd4fef0e64736f6c63430008070033",
  "immutableReferences": {},
  "source": "// SPDX-License-Identifier: MIT\r\npragma solidity 0.8.7;\r\nimport \"../node_modules/@openzeppelin/contracts/access/Ownable.sol\";\r\nimport \"../node_modules/@openzeppelin/contracts/utils/math/SafeMath.sol\";\r\nimport \"../node_modules/@openzeppelin/contracts/security/ReentrancyGuard.sol\";\r\n\r\n/*********************************************************************************************************\r\n * @title Voting\r\n * @author\r\n * @dev\r\n ***********************************************************************************************************/\r\ncontract Voting is Ownable, ReentrancyGuard{\r\n    \r\n    using SafeMath for uint256;\r\n    \r\n    struct Voter {\r\n        uint votedProposalId;\r\n        bool isRegistered;\r\n        bool hasVoted;\r\n    }\r\n\r\n    struct Proposal {\r\n        string description;\r\n        uint voteCount;\r\n    }\r\n    \r\n    enum WorkflowStatus {\r\n        RegisteringVoters,\r\n        ProposalsRegistrationStarted,\r\n        ProposalsRegistrationEnded,\r\n        VotingSessionStarted,\r\n        VotingSessionEnded,\r\n        VotesTallied\r\n    }\r\n    \r\n    event VoterRegistered(address voterAddress);\r\n    event ProposalsRegistrationStarted();\r\n    event ProposalsRegistrationEnded();\r\n    event ProposalRegistered(uint proposalId);\r\n    event VotingSessionStarted();\r\n    event VotingSessionEnded();\r\n    event Voted (address voter, uint proposalId);\r\n    event VotesTallied();\r\n    event WorkflowStatusChange(WorkflowStatus previousStatus, WorkflowStatus newStatus);\r\n    \r\n    mapping (address => Voter) private electeur;\r\n    address[] public addresses;\r\n    Proposal [] public proposition;\r\n    uint public winningProposalId;\r\n    WorkflowStatus public Status = WorkflowStatus.RegisteringVoters;\r\n\r\n\r\n     \r\n/*********************************************************************************************************\r\n * @dev L'administrateur du vote enregistre une liste blanche d'lecteurs identifis par leur adresse Ethereum.\r\n * @param _address Adresse Ethereum qui doit etre enregistre\r\n ***********************************************************************************************************/\r\n \r\n \r\n   function whitelist(address  _address) public onlyOwner{\r\n       require(!electeur[_address].isRegistered, \"Cette Adresse est deja enregistre!\");\r\n       require(Status==WorkflowStatus.RegisteringVoters,\"La session d'enregistre pour la whitelist doit etre ouverte\");\r\n       electeur[_address].isRegistered=true;\r\n       addresses.push(_address);\r\n       emit VoterRegistered(_address);\r\n       \r\n   }\r\n   \r\n/*********************************************************************************************************\r\n * @dev L'administrateur du vote enregistre une liste blanche d'lecteurs identifis par leur adresse Ethereum.\r\n * @param _address Adresse Ethereum qui doit etre enregistre\r\n ***********************************************************************************************************/\r\n   function getAddresses() public view returns(address[] memory){\r\n       return addresses;\r\n   }\r\n   \r\n/*********************************************************************************************************\r\n * @dev StartSessionEnrigrement'administrateur du vote commence la session d'enregistrement de la proposition\r\n * \r\n ***********************************************************************************************************/\r\n   \r\n    function StartEnregristrement () public onlyOwner{\r\n        require(Status==WorkflowStatus.RegisteringVoters,\"La session d'enregistre pour la whitelist doit etre ouverte\");\r\n        emit ProposalsRegistrationStarted();\r\n        Status = WorkflowStatus.ProposalsRegistrationStarted;\r\n        emit WorkflowStatusChange(WorkflowStatus.VotingSessionEnded,WorkflowStatus.ProposalsRegistrationStarted);\r\n    }\r\n    \r\n/*********************************************************************************************************\r\n * @dev Les lecteurs inscrits sont autoriss  enregistrer leurs propositions pendant que la session d'enregistrement est active.\r\n * @param _information _information pour leurs propositions\r\n * \r\n ***********************************************************************************************************/\r\n    \r\n    function Addproposal (string memory  _information) public{\r\n        require(Status == WorkflowStatus.ProposalsRegistrationStarted,\"La session de proposition n'est pas Ouvert\");\r\n        require(electeur[msg.sender].isRegistered==true,\"Ne figure pas dans la whitelist\");\r\n        Proposal memory newPropo = Proposal(_information, 0); \r\n        proposition.push(newPropo);\r\n        \r\n    }\r\n    \r\n/*********************************************************************************************************\r\n * @dev L'administrateur de vote met fin  la session d'enregistrement des propositions.\r\n * \r\n ***********************************************************************************************************/ \r\n \r\n    function EndEnregristrement () public onlyOwner{\r\n        require(Status==WorkflowStatus.ProposalsRegistrationStarted);\r\n       emit ProposalsRegistrationEnded();\r\n       Status = WorkflowStatus.ProposalsRegistrationEnded;\r\n       emit WorkflowStatusChange(WorkflowStatus.ProposalsRegistrationStarted,WorkflowStatus.ProposalsRegistrationEnded);\r\n    }\r\n    \r\n/*********************************************************************************************************\r\n * @dev L'administrateur du vote commence la session de vote.\r\n * \r\n ***********************************************************************************************************/ \r\n \r\n    function StartVote () public onlyOwner{\r\n        require(Status==WorkflowStatus.ProposalsRegistrationEnded,\"La Session d'enregistrement doit etre ouvert\");\r\n       emit VotingSessionStarted();\r\n       Status = WorkflowStatus.VotingSessionStarted;\r\n       emit WorkflowStatusChange(WorkflowStatus.ProposalsRegistrationEnded,WorkflowStatus.VotingSessionStarted);\r\n    }\r\n    \r\n/*********************************************************************************************************\r\n * @dev Les lecteurs inscrits votent pour leurs propositions prfres.\r\n * @param idPropal l'identifiant de la propositions\r\n ***********************************************************************************************************/ \r\n \r\n    function Vote (uint idPropal) public {\r\n        require(Status == WorkflowStatus.VotingSessionStarted,\"La Session de vote doit etre ferme avant\");\r\n        require(electeur[msg.sender].isRegistered==true,\"Ne figure pas dans la whitelist\");\r\n        require(!electeur[msg.sender].hasVoted,\"Vous avez deja vote\");\r\n        proposition[idPropal].voteCount=proposition[idPropal].voteCount.add(1);\r\n        electeur[msg.sender].hasVoted=true;\r\n        electeur[msg.sender].votedProposalId=idPropal;\r\n        emit Voted(msg.sender,idPropal);\r\n       \r\n    }\r\n    \r\n/*********************************************************************************************************\r\n * @dev L'administrateur du vote met fin  la session de vote.\r\n * \r\n ***********************************************************************************************************/    \r\n   \r\n    function EndVote () public onlyOwner{\r\n        require(Status==WorkflowStatus.VotingSessionStarted,\"La Session de vote doit etre ouverte\");\r\n       emit VotingSessionEnded();\r\n       Status = WorkflowStatus.VotingSessionEnded;\r\n       emit WorkflowStatusChange(WorkflowStatus.VotingSessionStarted,WorkflowStatus.VotingSessionEnded);\r\n    }\r\n   \r\n/*********************************************************************************************************\r\n * @dev Comptabilise\r\n * L'administrateur du vote comptabilise les votes.\r\n *******************************************************************************************************/\r\n \r\n \r\n    function Comptabilise () public  onlyOwner nonReentrant{\r\n        require(Status== WorkflowStatus.VotingSessionEnded,\"La Session de vote doit etre ferme avant\");\r\n       uint max =0;\r\n       for(uint i; i<proposition.length;i++){\r\n           if (proposition[i].voteCount >max){\r\n               max =proposition[i].voteCount;\r\n               winningProposalId=i;\r\n           }\r\n       }\r\n       emit VotesTallied();\r\n       Status = WorkflowStatus.VotesTallied;\r\n       emit WorkflowStatusChange(WorkflowStatus.VotingSessionEnded,WorkflowStatus.VotesTallied);\r\n       \r\n       \r\n    }\r\n    \r\n/*********************************************************************************************************\r\n * @dev \r\n * @return Proposal return l'objet Proposal qui a gagn les elections\r\n *******************************************************************************************************/    \r\n    \r\n    function CheckWinner () public view returns(Proposal memory){\r\n      return proposition[winningProposalId];  \r\n    }\r\n    \r\n    \r\n/*********************************************************************************************************\r\n * @dev verifie que une Adresse est enregistrement\r\n * @param _address Adresse Ethereum qui doit verifie sont inscription dans la whitelist\r\n * @return bool retourne vrai si \"Dans la whiteliste\" sinon faux \r\n *******************************************************************************************************/       \r\n   function isWhitelisted(address  _address) public view returns (uint){\r\n       if(electeur[_address].isRegistered==true){\r\n           return 1;\r\n       }\r\n       return 0;\r\n   }\r\n    \r\n}",
  "sourcePath": "C:\\Users\\xtrem\\OneDrive\\Documents\\LearnDAPP_Alyra\\voting-react\\contracts\\Voting.sol",
  "compiler": {
    "name": "solc",
    "version": "0.8.7+commit.e28d00a7.Emscripten.clang"
  },
  "schemaVersion": "3.4.3",
  "updatedAt": "2021-10-04T13:23:55.658Z",
  "networkType": "ethereum",
  "devdoc": {
    "kind": "dev",
    "methods": {
      "owner()": {
        "details": "Returns the address of the current owner."
      },
      "renounceOwnership()": {
        "details": "Leaves the contract without owner. It will not be possible to call `onlyOwner` functions anymore. Can only be called by the current owner. NOTE: Renouncing ownership will leave the contract without an owner, thereby removing any functionality that is only available to the owner."
      },
      "transferOwnership(address)": {
        "details": "Transfers ownership of the contract to a new account (`newOwner`). Can only be called by the current owner."
      }
    },
    "version": 1
  },
  "userdoc": {
    "kind": "user",
    "methods": {},
    "version": 1
  }
}