{
  "contractName": "Voting",
  "abi": [
    {
      "anonymous": false,
      "inputs": [
        {
          "indexed": true,
          "internalType": "address",
          "name": "previousOwner",
          "type": "address"
        },
        {
          "indexed": true,
          "internalType": "address",
          "name": "newOwner",
          "type": "address"
        }
      ],
      "name": "OwnershipTransferred",
      "type": "event"
    },
    {
      "anonymous": false,
      "inputs": [
        {
          "indexed": false,
          "internalType": "uint256",
          "name": "proposalId",
          "type": "uint256"
        }
      ],
      "name": "ProposalRegistered",
      "type": "event"
    },
    {
      "anonymous": false,
      "inputs": [],
      "name": "ProposalsRegistrationEnded",
      "type": "event"
    },
    {
      "anonymous": false,
      "inputs": [],
      "name": "ProposalsRegistrationStarted",
      "type": "event"
    },
    {
      "anonymous": false,
      "inputs": [
        {
          "indexed": false,
          "internalType": "address",
          "name": "voter",
          "type": "address"
        },
        {
          "indexed": false,
          "internalType": "uint256",
          "name": "proposalId",
          "type": "uint256"
        }
      ],
      "name": "Voted",
      "type": "event"
    },
    {
      "anonymous": false,
      "inputs": [
        {
          "indexed": false,
          "internalType": "address",
          "name": "voterAddress",
          "type": "address"
        }
      ],
      "name": "VoterRegistered",
      "type": "event"
    },
    {
      "anonymous": false,
      "inputs": [],
      "name": "VotesTallied",
      "type": "event"
    },
    {
      "anonymous": false,
      "inputs": [],
      "name": "VotingSessionEnded",
      "type": "event"
    },
    {
      "anonymous": false,
      "inputs": [],
      "name": "VotingSessionStarted",
      "type": "event"
    },
    {
      "anonymous": false,
      "inputs": [
        {
          "indexed": false,
          "internalType": "enum Voting.WorkflowStatus",
          "name": "previousStatus",
          "type": "uint8"
        },
        {
          "indexed": false,
          "internalType": "enum Voting.WorkflowStatus",
          "name": "newStatus",
          "type": "uint8"
        }
      ],
      "name": "WorkflowStatusChange",
      "type": "event"
    },
    {
      "inputs": [],
      "name": "Status",
      "outputs": [
        {
          "internalType": "enum Voting.WorkflowStatus",
          "name": "",
          "type": "uint8"
        }
      ],
      "stateMutability": "view",
      "type": "function",
      "constant": true
    },
    {
      "inputs": [
        {
          "internalType": "uint256",
          "name": "",
          "type": "uint256"
        }
      ],
      "name": "addresses",
      "outputs": [
        {
          "internalType": "address",
          "name": "",
          "type": "address"
        }
      ],
      "stateMutability": "view",
      "type": "function",
      "constant": true
    },
    {
      "inputs": [],
      "name": "owner",
      "outputs": [
        {
          "internalType": "address",
          "name": "",
          "type": "address"
        }
      ],
      "stateMutability": "view",
      "type": "function",
      "constant": true
    },
    {
      "inputs": [
        {
          "internalType": "uint256",
          "name": "",
          "type": "uint256"
        }
      ],
      "name": "proposition",
      "outputs": [
        {
          "internalType": "string",
          "name": "description",
          "type": "string"
        },
        {
          "internalType": "uint256",
          "name": "voteCount",
          "type": "uint256"
        }
      ],
      "stateMutability": "view",
      "type": "function",
      "constant": true
    },
    {
      "inputs": [],
      "name": "renounceOwnership",
      "outputs": [],
      "stateMutability": "nonpayable",
      "type": "function"
    },
    {
      "inputs": [
        {
          "internalType": "address",
          "name": "newOwner",
          "type": "address"
        }
      ],
      "name": "transferOwnership",
      "outputs": [],
      "stateMutability": "nonpayable",
      "type": "function"
    },
    {
      "inputs": [],
      "name": "winningProposalId",
      "outputs": [
        {
          "internalType": "uint256",
          "name": "",
          "type": "uint256"
        }
      ],
      "stateMutability": "view",
      "type": "function",
      "constant": true
    },
    {
      "inputs": [
        {
          "internalType": "address",
          "name": "_address",
          "type": "address"
        }
      ],
      "name": "whitelist",
      "outputs": [],
      "stateMutability": "nonpayable",
      "type": "function"
    },
    {
      "inputs": [],
      "name": "Nb_Electeur",
      "outputs": [
        {
          "internalType": "uint256",
          "name": "",
          "type": "uint256"
        }
      ],
      "stateMutability": "view",
      "type": "function",
      "constant": true
    },
    {
      "inputs": [],
      "name": "getAddresses",
      "outputs": [
        {
          "internalType": "address[]",
          "name": "",
          "type": "address[]"
        }
      ],
      "stateMutability": "view",
      "type": "function",
      "constant": true
    },
    {
      "inputs": [],
      "name": "StartEnregristrement",
      "outputs": [],
      "stateMutability": "nonpayable",
      "type": "function"
    },
    {
      "inputs": [
        {
          "internalType": "string",
          "name": "_information",
          "type": "string"
        }
      ],
      "name": "Addproposal",
      "outputs": [],
      "stateMutability": "nonpayable",
      "type": "function"
    },
    {
      "inputs": [],
      "name": "Nb_Proposition",
      "outputs": [
        {
          "internalType": "uint256",
          "name": "",
          "type": "uint256"
        }
      ],
      "stateMutability": "view",
      "type": "function",
      "constant": true
    },
    {
      "inputs": [],
      "name": "EndEnregristrement",
      "outputs": [],
      "stateMutability": "nonpayable",
      "type": "function"
    },
    {
      "inputs": [],
      "name": "StartVote",
      "outputs": [],
      "stateMutability": "nonpayable",
      "type": "function"
    },
    {
      "inputs": [
        {
          "internalType": "uint256",
          "name": "idPropal",
          "type": "uint256"
        }
      ],
      "name": "Vote",
      "outputs": [],
      "stateMutability": "nonpayable",
      "type": "function"
    },
    {
      "inputs": [],
      "name": "EndVote",
      "outputs": [],
      "stateMutability": "nonpayable",
      "type": "function"
    },
    {
      "inputs": [],
      "name": "CheckWinner",
      "outputs": [
        {
          "components": [
            {
              "internalType": "string",
              "name": "description",
              "type": "string"
            },
            {
              "internalType": "uint256",
              "name": "voteCount",
              "type": "uint256"
            }
          ],
          "internalType": "struct Voting.Proposal",
          "name": "",
          "type": "tuple"
        }
      ],
      "stateMutability": "view",
      "type": "function",
      "constant": true
    },
    {
      "inputs": [
        {
          "internalType": "address",
          "name": "_address",
          "type": "address"
        }
      ],
      "name": "isWhitelisted",
      "outputs": [
        {
          "internalType": "uint256",
          "name": "",
          "type": "uint256"
        }
      ],
      "stateMutability": "view",
      "type": "function",
      "constant": true
    }
  ],
  "bytecode": "0x60806040526000600560006101000a81548160ff021916908360058111156200002d576200002c62000137565b5b021790555060006006553480156200004457600080fd5b5062000065620000596200006b60201b60201c565b6200007360201b60201c565b62000166565b600033905090565b60008060009054906101000a900473ffffffffffffffffffffffffffffffffffffffff169050816000806101000a81548173ffffffffffffffffffffffffffffffffffffffff021916908373ffffffffffffffffffffffffffffffffffffffff1602179055508173ffffffffffffffffffffffffffffffffffffffff168173ffffffffffffffffffffffffffffffffffffffff167f8be0079c531659141344cd1fd0a4f28419497f9722a3daafe3b4186f6b6457e060405160405180910390a35050565b7f4e487b7100000000000000000000000000000000000000000000000000000000600052602160045260246000fd5b61229680620001766000396000f3fe608060405234801561001057600080fd5b50600436106101215760003560e01c8063a2f3d16e116100ad578063dcd6a5cd11610071578063dcd6a5cd146102af578063edf26d9b146102cb578063f2fde38b146102fb578063f8c37ae814610317578063ff943e3a1461032157610121565b8063a2f3d16e1461021a578063a39fac1214610238578063b4c4197114610256578063c64963c514610287578063c68e2a49146102a557610121565b8063715018a6116100f4578063715018a6146101ae57806372a413a9146101b85780638da5cb5b146101c25780639b19251a146101e05780639d8ebb8b146101fc57610121565b80633af32abf1461012657806345f09ce91461015657806361b3f07a146101745780636547689a14610190575b600080fd5b610140600480360381019061013b919061171c565b61032b565b60405161014d9190611c86565b60405180910390f35b61015e61039c565b60405161016b9190611ad0565b60405180910390f35b61018e60048036038101906101899190611749565b6103af565b005b61019861056a565b6040516101a59190611c86565b60405180910390f35b6101b6610577565b005b6101c06105ff565b005b6101ca61073b565b6040516101d79190611a6a565b60405180910390f35b6101fa60048036038101906101f5919061171c565b610764565b005b6102046109dd565b6040516102119190611c86565b60405180910390f35b6102226109ea565b60405161022f9190611c64565b60405180910390f35b610240610ac2565b60405161024d9190611aae565b60405180910390f35b610270600480360381019061026b9190611792565b610b50565b60405161027e929190611b14565b60405180910390f35b61028f610c0c565b60405161029c9190611c86565b60405180910390f35b6102ad610c12565b005b6102c960048036038101906102c49190611792565b610d62565b005b6102e560048036038101906102e09190611792565b6110a0565b6040516102f29190611a6a565b60405180910390f35b6103156004803603810190610310919061171c565b6110df565b005b61031f6111d7565b005b61032961135d565b005b600060011515600160008473ffffffffffffffffffffffffffffffffffffffff1673ffffffffffffffffffffffffffffffffffffffff16815260200190815260200160002060010160009054906101000a900460ff16151514156103925760019050610397565b600090505b919050565b600560009054906101000a900460ff1681565b600160058111156103c3576103c2611ee8565b5b600560009054906101000a900460ff1660058111156103e5576103e4611ee8565b5b14610425576040517f08c379a000000000000000000000000000000000000000000000000000000000815260040161041c90611b44565b60405180910390fd5b60011515600160003373ffffffffffffffffffffffffffffffffffffffff1673ffffffffffffffffffffffffffffffffffffffff16815260200190815260200160002060010160009054906101000a900460ff161515146104bb576040517f08c379a00000000000000000000000000000000000000000000000000000000081526004016104b290611be4565b60405180910390fd5b60006040518060400160405280838152602001600081525090506003819080600181540180825580915050600190039060005260206000209060020201600090919091909150600082015181600001908051906020019061051d9291906115c5565b506020820151816001015550507f92e393e9b54e2f801d3ea4beb0c5e71a21cc34a5d34b77d0fb8a3aa1650dc18f60038054905060405161055e9190611c86565b60405180910390a15050565b6000600380549050905090565b61057f6114e3565b73ffffffffffffffffffffffffffffffffffffffff1661059d61073b565b73ffffffffffffffffffffffffffffffffffffffff16146105f3576040517f08c379a00000000000000000000000000000000000000000000000000000000081526004016105ea90611c24565b60405180910390fd5b6105fd60006114eb565b565b6106076114e3565b73ffffffffffffffffffffffffffffffffffffffff1661062561073b565b73ffffffffffffffffffffffffffffffffffffffff161461067b576040517f08c379a000000000000000000000000000000000000000000000000000000000815260040161067290611c24565b60405180910390fd5b7fc379d349a6301baf50fb2f98d829f4ae10b1cdb7c66f4e4d8117302df7b8cd4c60405160405180910390a17f0e5e95ff8725ab3e7a4b6b59998a4c344c2aa8d1485f5e60cb7f337768e6134760405160405180910390a16004600560006101000a81548160ff021916908360058111156106f9576106f8611ee8565b5b02179055507f0a97a4ee45751e2abf3e4fc8946939630b11b371ea8ae39ccdc3056e98f5cc3f60036004604051610731929190611aeb565b60405180910390a1565b60008060009054906101000a900473ffffffffffffffffffffffffffffffffffffffff16905090565b61076c6114e3565b73ffffffffffffffffffffffffffffffffffffffff1661078a61073b565b73ffffffffffffffffffffffffffffffffffffffff16146107e0576040517f08c379a00000000000000000000000000000000000000000000000000000000081526004016107d790611c24565b60405180910390fd5b600160008273ffffffffffffffffffffffffffffffffffffffff1673ffffffffffffffffffffffffffffffffffffffff16815260200190815260200160002060010160009054906101000a900460ff1615610870576040517f08c379a000000000000000000000000000000000000000000000000000000000815260040161086790611c04565b60405180910390fd5b6000600581111561088457610883611ee8565b5b600560009054906101000a900460ff1660058111156108a6576108a5611ee8565b5b146108e6576040517f08c379a00000000000000000000000000000000000000000000000000000000081526004016108dd90611bc4565b60405180910390fd5b60018060008373ffffffffffffffffffffffffffffffffffffffff1673ffffffffffffffffffffffffffffffffffffffff16815260200190815260200160002060010160006101000a81548160ff0219169083151502179055506002819080600181540180825580915050600190039060005260206000200160009091909190916101000a81548173ffffffffffffffffffffffffffffffffffffffff021916908373ffffffffffffffffffffffffffffffffffffffff1602179055507fb6be2187d059cc2a55fe29e0e503b566e1e0f8c8780096e185429350acffd3dd816040516109d29190611a6a565b60405180910390a150565b6000600280549050905090565b6109f261164b565b600360045481548110610a0857610a07611f46565b5b9060005260206000209060020201604051806040016040529081600082018054610a3190611e56565b80601f0160208091040260200160405190810160405280929190818152602001828054610a5d90611e56565b8015610aaa5780601f10610a7f57610100808354040283529160200191610aaa565b820191906000526020600020905b815481529060010190602001808311610a8d57829003601f168201915b50505050508152602001600182015481525050905090565b60606002805480602002602001604051908101604052809291908181526020018280548015610b4657602002820191906000526020600020905b8160009054906101000a900473ffffffffffffffffffffffffffffffffffffffff1673ffffffffffffffffffffffffffffffffffffffff1681526020019060010190808311610afc575b5050505050905090565b60038181548110610b6057600080fd5b9060005260206000209060020201600091509050806000018054610b8390611e56565b80601f0160208091040260200160405190810160405280929190818152602001828054610baf90611e56565b8015610bfc5780601f10610bd157610100808354040283529160200191610bfc565b820191906000526020600020905b815481529060010190602001808311610bdf57829003601f168201915b5050505050908060010154905082565b60045481565b610c1a6114e3565b73ffffffffffffffffffffffffffffffffffffffff16610c3861073b565b73ffffffffffffffffffffffffffffffffffffffff1614610c8e576040517f08c379a0000000000000000000000000000000000000000000000000000000008152600401610c8590611c24565b60405180910390fd5b60016005811115610ca257610ca1611ee8565b5b600560009054906101000a900460ff166005811115610cc457610cc3611ee8565b5b14610cce57600080fd5b7f240cb87b2e4df4c318e72bd714d45a9cad60249e883ff56b1fffd83a4595a8fa60405160405180910390a16002600560006101000a81548160ff02191690836005811115610d2057610d1f611ee8565b5b02179055507f0a97a4ee45751e2abf3e4fc8946939630b11b371ea8ae39ccdc3056e98f5cc3f60016002604051610d58929190611aeb565b60405180910390a1565b60036005811115610d7657610d75611ee8565b5b600560009054906101000a900460ff166005811115610d9857610d97611ee8565b5b14610dd8576040517f08c379a0000000000000000000000000000000000000000000000000000000008152600401610dcf90611c44565b60405180910390fd5b60011515600160003373ffffffffffffffffffffffffffffffffffffffff1673ffffffffffffffffffffffffffffffffffffffff16815260200190815260200160002060010160009054906101000a900460ff16151514610e6e576040517f08c379a0000000000000000000000000000000000000000000000000000000008152600401610e6590611be4565b60405180910390fd5b600160003373ffffffffffffffffffffffffffffffffffffffff1673ffffffffffffffffffffffffffffffffffffffff16815260200190815260200160002060010160019054906101000a900460ff1615610efe576040517f08c379a0000000000000000000000000000000000000000000000000000000008152600401610ef590611ba4565b60405180910390fd5b610f37600160038381548110610f1757610f16611f46565b5b9060005260206000209060020201600101546115af90919063ffffffff16565b60038281548110610f4b57610f4a611f46565b5b90600052602060002090600202016001018190555060018060003373ffffffffffffffffffffffffffffffffffffffff1673ffffffffffffffffffffffffffffffffffffffff16815260200190815260200160002060010160016101000a81548160ff02191690831515021790555080600160003373ffffffffffffffffffffffffffffffffffffffff1673ffffffffffffffffffffffffffffffffffffffff168152602001908152602001600020600001819055506006546003828154811061101857611017611f46565b5b9060005260206000209060020201600101541115611064576003818154811061104457611043611f46565b5b906000526020600020906002020160010154600681905550806004819055505b7f4d99b957a2bc29a30ebd96a7be8e68fe50a3c701db28a91436490b7d53870ca43382604051611095929190611a85565b60405180910390a150565b600281815481106110b057600080fd5b906000526020600020016000915054906101000a900473ffffffffffffffffffffffffffffffffffffffff1681565b6110e76114e3565b73ffffffffffffffffffffffffffffffffffffffff1661110561073b565b73ffffffffffffffffffffffffffffffffffffffff161461115b576040517f08c379a000000000000000000000000000000000000000000000000000000000815260040161115290611c24565b60405180910390fd5b600073ffffffffffffffffffffffffffffffffffffffff168173ffffffffffffffffffffffffffffffffffffffff1614156111cb576040517f08c379a00000000000000000000000000000000000000000000000000000000081526004016111c290611b64565b60405180910390fd5b6111d4816114eb565b50565b6111df6114e3565b73ffffffffffffffffffffffffffffffffffffffff166111fd61073b565b73ffffffffffffffffffffffffffffffffffffffff1614611253576040517f08c379a000000000000000000000000000000000000000000000000000000000815260040161124a90611c24565b60405180910390fd5b6000600581111561126757611266611ee8565b5b600560009054906101000a900460ff16600581111561128957611288611ee8565b5b146112c9576040517f08c379a00000000000000000000000000000000000000000000000000000000081526004016112c090611bc4565b60405180910390fd5b7f344c25562921d075a298d34b6dd1fd00d36ff293974539dfd4a8c625d9f0064c60405160405180910390a16001600560006101000a81548160ff0219169083600581111561131b5761131a611ee8565b5b02179055507f0a97a4ee45751e2abf3e4fc8946939630b11b371ea8ae39ccdc3056e98f5cc3f60046001604051611353929190611aeb565b60405180910390a1565b6113656114e3565b73ffffffffffffffffffffffffffffffffffffffff1661138361073b565b73ffffffffffffffffffffffffffffffffffffffff16146113d9576040517f08c379a00000000000000000000000000000000000000000000000000000000081526004016113d090611c24565b60405180910390fd5b600260058111156113ed576113ec611ee8565b5b600560009054906101000a900460ff16600581111561140f5761140e611ee8565b5b1461144f576040517f08c379a000000000000000000000000000000000000000000000000000000000815260040161144690611b84565b60405180910390fd5b7f1b8e19a458c1bcd88553332c518cc5c4e2d5793e712ee766d4f1c14f672ef1f560405160405180910390a16003600560006101000a81548160ff021916908360058111156114a1576114a0611ee8565b5b02179055507f0a97a4ee45751e2abf3e4fc8946939630b11b371ea8ae39ccdc3056e98f5cc3f600260036040516114d9929190611aeb565b60405180910390a1565b600033905090565b60008060009054906101000a900473ffffffffffffffffffffffffffffffffffffffff169050816000806101000a81548173ffffffffffffffffffffffffffffffffffffffff021916908373ffffffffffffffffffffffffffffffffffffffff1602179055508173ffffffffffffffffffffffffffffffffffffffff168173ffffffffffffffffffffffffffffffffffffffff167f8be0079c531659141344cd1fd0a4f28419497f9722a3daafe3b4186f6b6457e060405160405180910390a35050565b600081836115bd9190611d5d565b905092915050565b8280546115d190611e56565b90600052602060002090601f0160209004810192826115f3576000855561163a565b82601f1061160c57805160ff191683800117855561163a565b8280016001018555821561163a579182015b8281111561163957825182559160200191906001019061161e565b5b5090506116479190611665565b5090565b604051806040016040528060608152602001600081525090565b5b8082111561167e576000816000905550600101611666565b5090565b600061169561169084611cc6565b611ca1565b9050828152602081018484840111156116b1576116b0611fa9565b5b6116bc848285611e14565b509392505050565b6000813590506116d381612232565b92915050565b600082601f8301126116ee576116ed611fa4565b5b81356116fe848260208601611682565b91505092915050565b60008135905061171681612249565b92915050565b60006020828403121561173257611731611fb3565b5b6000611740848285016116c4565b91505092915050565b60006020828403121561175f5761175e611fb3565b5b600082013567ffffffffffffffff81111561177d5761177c611fae565b5b611789848285016116d9565b91505092915050565b6000602082840312156117a8576117a7611fb3565b5b60006117b684828501611707565b91505092915050565b60006117cb83836117d7565b60208301905092915050565b6117e081611db3565b82525050565b6117ef81611db3565b82525050565b600061180082611d07565b61180a8185611d2a565b935061181583611cf7565b8060005b8381101561184657815161182d88826117bf565b975061183883611d1d565b925050600181019050611819565b5085935050505092915050565b61185c81611e02565b82525050565b600061186d82611d12565b6118778185611d3b565b9350611887818560208601611e23565b61189081611fb8565b840191505092915050565b60006118a682611d12565b6118b08185611d4c565b93506118c0818560208601611e23565b6118c981611fb8565b840191505092915050565b60006118e1602a83611d4c565b91506118ec82611fc9565b604082019050919050565b6000611904602683611d4c565b915061190f82612018565b604082019050919050565b6000611927602c83611d4c565b915061193282612067565b604082019050919050565b600061194a601383611d4c565b9150611955826120b6565b602082019050919050565b600061196d603b83611d4c565b9150611978826120df565b604082019050919050565b6000611990601f83611d4c565b915061199b8261212e565b602082019050919050565b60006119b3602283611d4c565b91506119be82612157565b604082019050919050565b60006119d6602083611d4c565b91506119e1826121a6565b602082019050919050565b60006119f9602883611d4c565b9150611a04826121cf565b604082019050919050565b60006040830160008301518482036000860152611a2c8282611862565b9150506020830151611a416020860182611a4c565b508091505092915050565b611a5581611df8565b82525050565b611a6481611df8565b82525050565b6000602082019050611a7f60008301846117e6565b92915050565b6000604082019050611a9a60008301856117e6565b611aa76020830184611a5b565b9392505050565b60006020820190508181036000830152611ac881846117f5565b905092915050565b6000602082019050611ae56000830184611853565b92915050565b6000604082019050611b006000830185611853565b611b0d6020830184611853565b9392505050565b60006040820190508181036000830152611b2e818561189b565b9050611b3d6020830184611a5b565b9392505050565b60006020820190508181036000830152611b5d816118d4565b9050919050565b60006020820190508181036000830152611b7d816118f7565b9050919050565b60006020820190508181036000830152611b9d8161191a565b9050919050565b60006020820190508181036000830152611bbd8161193d565b9050919050565b60006020820190508181036000830152611bdd81611960565b9050919050565b60006020820190508181036000830152611bfd81611983565b9050919050565b60006020820190508181036000830152611c1d816119a6565b9050919050565b60006020820190508181036000830152611c3d816119c9565b9050919050565b60006020820190508181036000830152611c5d816119ec565b9050919050565b60006020820190508181036000830152611c7e8184611a0f565b905092915050565b6000602082019050611c9b6000830184611a5b565b92915050565b6000611cab611cbc565b9050611cb78282611e88565b919050565b6000604051905090565b600067ffffffffffffffff821115611ce157611ce0611f75565b5b611cea82611fb8565b9050602081019050919050565b6000819050602082019050919050565b600081519050919050565b600081519050919050565b6000602082019050919050565b600082825260208201905092915050565b600082825260208201905092915050565b600082825260208201905092915050565b6000611d6882611df8565b9150611d7383611df8565b9250827fffffffffffffffffffffffffffffffffffffffffffffffffffffffffffffffff03821115611da857611da7611eb9565b5b828201905092915050565b6000611dbe82611dd8565b9050919050565b6000819050611dd38261221e565b919050565b600073ffffffffffffffffffffffffffffffffffffffff82169050919050565b6000819050919050565b6000611e0d82611dc5565b9050919050565b82818337600083830152505050565b60005b83811015611e41578082015181840152602081019050611e26565b83811115611e50576000848401525b50505050565b60006002820490506001821680611e6e57607f821691505b60208210811415611e8257611e81611f17565b5b50919050565b611e9182611fb8565b810181811067ffffffffffffffff82111715611eb057611eaf611f75565b5b80604052505050565b7f4e487b7100000000000000000000000000000000000000000000000000000000600052601160045260246000fd5b7f4e487b7100000000000000000000000000000000000000000000000000000000600052602160045260246000fd5b7f4e487b7100000000000000000000000000000000000000000000000000000000600052602260045260246000fd5b7f4e487b7100000000000000000000000000000000000000000000000000000000600052603260045260246000fd5b7f4e487b7100000000000000000000000000000000000000000000000000000000600052604160045260246000fd5b600080fd5b600080fd5b600080fd5b600080fd5b6000601f19601f8301169050919050565b7f4c612073657373696f6e2064652070726f706f736974696f6e206e276573742060008201527f706173204f757665727400000000000000000000000000000000000000000000602082015250565b7f4f776e61626c653a206e6577206f776e657220697320746865207a65726f206160008201527f6464726573730000000000000000000000000000000000000000000000000000602082015250565b7f4c612053657373696f6e206427656e72656769737472656d656e7420646f697460008201527f2065747265206f75766572740000000000000000000000000000000000000000602082015250565b7f566f7573206176657a2064656a6120766f746500000000000000000000000000600082015250565b7f4c612073657373696f6e206427656e726567697374726520706f7572206c612060008201527f77686974656c69737420646f69742065747265206f7576657274650000000000602082015250565b7f4e6520666967757265207061732064616e73206c612077686974656c69737400600082015250565b7f43657474652041647265737365206573742064656a6120656e7265676973747260008201527f6521000000000000000000000000000000000000000000000000000000000000602082015250565b7f4f776e61626c653a2063616c6c6572206973206e6f7420746865206f776e6572600082015250565b7f4c612053657373696f6e20646520766f746520646f697420657472652066657260008201527f6d65206176616e74000000000000000000000000000000000000000000000000602082015250565b6006811061222f5761222e611ee8565b5b50565b61223b81611db3565b811461224657600080fd5b50565b61225281611df8565b811461225d57600080fd5b5056fea264697066735822122010a595830cadfe8e67963fe0ac86c703b60efcd6650f9ecd235b309f1463f94d64736f6c63430008070033",
  "immutableReferences": {},
  "source": "// SPDX-License-Identifier: MIT\r\npragma solidity 0.8.7;\r\nimport \"../node_modules/@openzeppelin/contracts/access/Ownable.sol\";\r\nimport \"../node_modules/@openzeppelin/contracts/utils/math/SafeMath.sol\";\r\n\r\n/*********************************************************************************************************\r\n * @title Voting\r\n * @author\r\n * @dev\r\n ***********************************************************************************************************/\r\ncontract Voting is Ownable{\r\n    \r\n    using SafeMath for uint256;\r\n    \r\n    struct Voter {\r\n        uint votedProposalId;\r\n        bool isRegistered;\r\n        bool hasVoted;\r\n    }\r\n\r\n    struct Proposal {\r\n        string description;\r\n        uint voteCount;\r\n    }\r\n    \r\n    enum WorkflowStatus {\r\n        RegisteringVoters,\r\n        ProposalsRegistrationStarted,\r\n        ProposalsRegistrationEnded,\r\n        VotingSessionStarted,\r\n        VotingSessionEnded,\r\n        VotesTallied\r\n    }\r\n\r\n    mapping (address => Voter) private electeur;\r\n    address[] public addresses;\r\n    Proposal [] public proposition;\r\n    uint public winningProposalId;\r\n    WorkflowStatus public Status = WorkflowStatus.RegisteringVoters;\r\n    uint max=0;\r\n\r\n    event VoterRegistered(address voterAddress);\r\n    event ProposalsRegistrationStarted();\r\n    event ProposalsRegistrationEnded();\r\n    event ProposalRegistered(uint proposalId);\r\n    event VotingSessionStarted();\r\n    event VotingSessionEnded();\r\n    event Voted (address voter, uint proposalId);\r\n    event VotesTallied();\r\n    event WorkflowStatusChange(WorkflowStatus previousStatus, WorkflowStatus newStatus);\r\n    \r\n    \r\n\r\n\r\n     \r\n/*********************************************************************************************************\r\n * @dev L'administrateur du vote enregistre une liste blanche d'lecteurs identifis par leur adresse Ethereum.\r\n * @param _address Adresse Ethereum qui doit etre enregistre\r\n ***********************************************************************************************************/\r\n \r\n \r\n   function whitelist(address  _address) public onlyOwner{\r\n       require(!electeur[_address].isRegistered, \"Cette Adresse est deja enregistre!\");\r\n       require(Status==WorkflowStatus.RegisteringVoters,\"La session d'enregistre pour la whitelist doit etre ouverte\");\r\n       electeur[_address].isRegistered=true;\r\n       addresses.push(_address);\r\n       emit VoterRegistered(_address);\r\n       \r\n   }\r\n    function Nb_Electeur() public view returns(uint){\r\n        return addresses.length;\r\n    }\r\n   \r\n/*********************************************************************************************************\r\n * @dev L'administrateur du vote enregistre une liste blanche d'lecteurs identifis par leur adresse Ethereum.\r\n * @param _address Adresse Ethereum qui doit etre enregistre\r\n ***********************************************************************************************************/\r\n   function getAddresses() public view returns(address[] memory){\r\n       return addresses;\r\n   }\r\n   \r\n/*********************************************************************************************************\r\n * @dev StartSessionEnrigrement'administrateur du vote commence la session d'enregistrement de la proposition\r\n * \r\n ***********************************************************************************************************/\r\n   \r\n    function StartEnregristrement () public onlyOwner{\r\n        require(Status==WorkflowStatus.RegisteringVoters,\"La session d'enregistre pour la whitelist doit etre ouverte\");\r\n        emit ProposalsRegistrationStarted();\r\n        Status = WorkflowStatus.ProposalsRegistrationStarted;\r\n        emit WorkflowStatusChange(WorkflowStatus.VotingSessionEnded,WorkflowStatus.ProposalsRegistrationStarted);\r\n    }\r\n    \r\n/*********************************************************************************************************\r\n * @dev Les lecteurs inscrits sont autoriss  enregistrer leurs propositions pendant que la session d'enregistrement est active.\r\n * @param _information _information pour leurs propositions\r\n * \r\n ***********************************************************************************************************/\r\n    \r\n    function Addproposal (string memory  _information) public{\r\n        require(Status == WorkflowStatus.ProposalsRegistrationStarted,\"La session de proposition n'est pas Ouvert\");\r\n        require(electeur[msg.sender].isRegistered==true,\"Ne figure pas dans la whitelist\");\r\n        Proposal memory newPropo = Proposal(_information, 0); \r\n        proposition.push(newPropo);\r\n        emit ProposalRegistered(proposition.length);\r\n    }\r\n\r\n     function Nb_Proposition() public view returns(uint){\r\n        return proposition.length;\r\n    }\r\n    \r\n    \r\n/*********************************************************************************************************\r\n * @dev L'administrateur de vote met fin  la session d'enregistrement des propositions.\r\n * \r\n ***********************************************************************************************************/ \r\n \r\n    function EndEnregristrement () public onlyOwner{\r\n        require(Status==WorkflowStatus.ProposalsRegistrationStarted);\r\n       emit ProposalsRegistrationEnded();\r\n       Status = WorkflowStatus.ProposalsRegistrationEnded;\r\n       emit WorkflowStatusChange(WorkflowStatus.ProposalsRegistrationStarted,WorkflowStatus.ProposalsRegistrationEnded);\r\n    }\r\n    \r\n/*********************************************************************************************************\r\n * @dev L'administrateur du vote commence la session de vote.\r\n * \r\n ***********************************************************************************************************/ \r\n \r\n    function StartVote () public onlyOwner{\r\n        require(Status==WorkflowStatus.ProposalsRegistrationEnded,\"La Session d'enregistrement doit etre ouvert\");\r\n       emit VotingSessionStarted();\r\n       Status = WorkflowStatus.VotingSessionStarted;\r\n       emit WorkflowStatusChange(WorkflowStatus.ProposalsRegistrationEnded,WorkflowStatus.VotingSessionStarted);\r\n    }\r\n    \r\n/*********************************************************************************************************\r\n * @dev Les lecteurs inscrits votent pour leurs propositions prfres.\r\n * @param idPropal l'identifiant de la propositions\r\n ***********************************************************************************************************/ \r\n \r\n    function Vote (uint idPropal) public {\r\n        require(Status == WorkflowStatus.VotingSessionStarted,\"La Session de vote doit etre ferme avant\");\r\n        require(electeur[msg.sender].isRegistered==true,\"Ne figure pas dans la whitelist\");\r\n        require(!electeur[msg.sender].hasVoted,\"Vous avez deja vote\");\r\n        proposition[idPropal].voteCount=proposition[idPropal].voteCount.add(1);\r\n        electeur[msg.sender].hasVoted=true;\r\n        electeur[msg.sender].votedProposalId=idPropal;\r\n        if (proposition[idPropal].voteCount >max){\r\n               max =proposition[idPropal].voteCount;\r\n               winningProposalId=idPropal;\r\n        }\r\n        \r\n        emit Voted(msg.sender,idPropal);\r\n       \r\n    }\r\n    \r\n/*********************************************************************************************************\r\n * @dev L'administrateur du vote met fin  la session de vote.\r\n * \r\n ***********************************************************************************************************/    \r\n   \r\n    function EndVote () public onlyOwner{\r\n       // require(Status==WorkflowStatus.VotingSessionStarted,\"La Session de vote doit etre ouverte\");\r\n       emit VotingSessionEnded();\r\n       emit VotesTallied();\r\n       Status = WorkflowStatus.VotingSessionEnded;\r\n       emit WorkflowStatusChange(WorkflowStatus.VotingSessionStarted,WorkflowStatus.VotingSessionEnded);\r\n    }\r\n   \r\n\r\n    \r\n/*********************************************************************************************************\r\n * @dev \r\n * @return Proposal return l'objet Proposal qui a gagn les elections\r\n *******************************************************************************************************/    \r\n    \r\n    function CheckWinner () public view returns(Proposal memory){\r\n      return proposition[winningProposalId];  \r\n    }\r\n    \r\n    \r\n/*********************************************************************************************************\r\n * @dev verifie que une Adresse est enregistrement\r\n * @param _address Adresse Ethereum qui doit verifie sont inscription dans la whitelist\r\n * @return bool retourne vrai si \"Dans la whiteliste\" sinon faux \r\n *******************************************************************************************************/       \r\n   function isWhitelisted(address  _address) public view returns (uint){\r\n       if(electeur[_address].isRegistered==true){\r\n           return 1;\r\n       }\r\n       return 0;\r\n   }\r\n    \r\n}",
  "sourcePath": "C:\\Users\\xtrem\\OneDrive\\Documents\\LearnDAPP_Alyra\\HEROKU\\Heroku_Dapp\\voting-react\\contracts\\Voting.sol",
  "compiler": {
    "name": "solc",
    "version": "0.8.7+commit.e28d00a7.Emscripten.clang"
  },
  "schemaVersion": "3.4.3",
  "updatedAt": "2021-11-01T13:15:39.900Z",
  "networkType": "ethereum",
  "devdoc": {
    "kind": "dev",
    "methods": {
      "owner()": {
        "details": "Returns the address of the current owner."
      },
      "renounceOwnership()": {
        "details": "Leaves the contract without owner. It will not be possible to call `onlyOwner` functions anymore. Can only be called by the current owner. NOTE: Renouncing ownership will leave the contract without an owner, thereby removing any functionality that is only available to the owner."
      },
      "transferOwnership(address)": {
        "details": "Transfers ownership of the contract to a new account (`newOwner`). Can only be called by the current owner."
      }
    },
    "version": 1
  },
  "userdoc": {
    "kind": "user",
    "methods": {},
    "version": 1
  }
}